{
	"SImpleStorage-4.sol": {
		"SimpleStorage": {
			"abi": [
				{
					"inputs": [
						{
							"internalType": "string",
							"name": "_name",
							"type": "string"
						},
						{
							"internalType": "uint256",
							"name": "_favoriteNumber",
							"type": "uint256"
						}
					],
					"name": "addPerson",
					"outputs": [],
					"stateMutability": "nonpayable",
					"type": "function"
				},
				{
					"inputs": [
						{
							"internalType": "string",
							"name": "",
							"type": "string"
						}
					],
					"name": "nameToFoavoriteNumber",
					"outputs": [
						{
							"internalType": "uint256",
							"name": "",
							"type": "uint256"
						}
					],
					"stateMutability": "view",
					"type": "function"
				},
				{
					"inputs": [
						{
							"internalType": "uint256",
							"name": "",
							"type": "uint256"
						}
					],
					"name": "people",
					"outputs": [
						{
							"internalType": "uint256",
							"name": "favoriteNumber",
							"type": "uint256"
						},
						{
							"internalType": "string",
							"name": "name",
							"type": "string"
						}
					],
					"stateMutability": "view",
					"type": "function"
				},
				{
					"inputs": [],
					"name": "retrieve",
					"outputs": [
						{
							"internalType": "uint256",
							"name": "",
							"type": "uint256"
						}
					],
					"stateMutability": "view",
					"type": "function"
				},
				{
					"inputs": [
						{
							"internalType": "uint256",
							"name": "_fravoriteNumber",
							"type": "uint256"
						}
					],
					"name": "store",
					"outputs": [],
					"stateMutability": "nonpayable",
					"type": "function"
				}
			],
			"devdoc": {
				"kind": "dev",
				"methods": {},
				"version": 1
			},
			"evm": {
				"assembly": "    /* \"SImpleStorage-4.sol\":77:754  contract SimpleStorage {... */\n  mstore(0x40, 0x80)\n  callvalue\n  dup1\n  iszero\n  tag_1\n  jumpi\n  0x00\n  dup1\n  revert\ntag_1:\n  pop\n  dataSize(sub_0)\n  dup1\n  dataOffset(sub_0)\n  0x00\n  codecopy\n  0x00\n  return\nstop\n\nsub_0: assembly {\n        /* \"SImpleStorage-4.sol\":77:754  contract SimpleStorage {... */\n      mstore(0x40, 0x80)\n      callvalue\n      dup1\n      iszero\n      tag_1\n      jumpi\n      0x00\n      dup1\n      revert\n    tag_1:\n      pop\n      jumpi(tag_2, lt(calldatasize, 0x04))\n      shr(0xe0, calldataload(0x00))\n      dup1\n      0x2e64cec1\n      eq\n      tag_3\n      jumpi\n      dup1\n      0x6057361d\n      eq\n      tag_4\n      jumpi\n      dup1\n      0x6f760f41\n      eq\n      tag_5\n      jumpi\n      dup1\n      0x74efae7b\n      eq\n      tag_6\n      jumpi\n      dup1\n      0x9e7a13ad\n      eq\n      tag_7\n      jumpi\n    tag_2:\n      0x00\n      dup1\n      revert\n        /* \"SImpleStorage-4.sol\":663:751  function retrieve() public view returns (uint256) {... */\n    tag_3:\n      tag_8\n      tag_9\n      jump\t// in\n    tag_8:\n      mload(0x40)\n      tag_10\n      swap2\n      swap1\n      tag_11\n      jump\t// in\n    tag_10:\n      mload(0x40)\n      dup1\n      swap2\n      sub\n      swap1\n      return\n        /* \"SImpleStorage-4.sol\":559:657  function store(uint256 _fravoriteNumber) public {... */\n    tag_4:\n      tag_12\n      0x04\n      dup1\n      calldatasize\n      sub\n      dup2\n      add\n      swap1\n      tag_13\n      swap2\n      swap1\n      tag_14\n      jump\t// in\n    tag_13:\n      tag_15\n      jump\t// in\n    tag_12:\n      stop\n        /* \"SImpleStorage-4.sol\":355:552  function addPerson(string calldata _name, uint256 _favoriteNumber) public {... */\n    tag_5:\n      tag_16\n      0x04\n      dup1\n      calldatasize\n      sub\n      dup2\n      add\n      swap1\n      tag_17\n      swap2\n      swap1\n      tag_18\n      jump\t// in\n    tag_17:\n      tag_19\n      jump\t// in\n    tag_16:\n      stop\n        /* \"SImpleStorage-4.sol\":184:239  mapping(string => uint256) public nameToFoavoriteNumber */\n    tag_6:\n      tag_20\n      0x04\n      dup1\n      calldatasize\n      sub\n      dup2\n      add\n      swap1\n      tag_21\n      swap2\n      swap1\n      tag_22\n      jump\t// in\n    tag_21:\n      tag_23\n      jump\t// in\n    tag_20:\n      mload(0x40)\n      tag_24\n      swap2\n      swap1\n      tag_11\n      jump\t// in\n    tag_24:\n      mload(0x40)\n      dup1\n      swap2\n      sub\n      swap1\n      return\n        /* \"SImpleStorage-4.sol\":326:348  People[] public people */\n    tag_7:\n      tag_25\n      0x04\n      dup1\n      calldatasize\n      sub\n      dup2\n      add\n      swap1\n      tag_26\n      swap2\n      swap1\n      tag_14\n      jump\t// in\n    tag_26:\n      tag_27\n      jump\t// in\n    tag_25:\n      mload(0x40)\n      tag_28\n      swap3\n      swap2\n      swap1\n      tag_29\n      jump\t// in\n    tag_28:\n      mload(0x40)\n      dup1\n      swap2\n      sub\n      swap1\n      return\n        /* \"SImpleStorage-4.sol\":663:751  function retrieve() public view returns (uint256) {... */\n    tag_9:\n        /* \"SImpleStorage-4.sol\":704:711  uint256 */\n      0x00\n        /* \"SImpleStorage-4.sol\":730:744  favoriteNumber */\n      dup1\n      sload\n        /* \"SImpleStorage-4.sol\":723:744  return favoriteNumber */\n      swap1\n      pop\n        /* \"SImpleStorage-4.sol\":663:751  function retrieve() public view returns (uint256) {... */\n      swap1\n      jump\t// out\n        /* \"SImpleStorage-4.sol\":559:657  function store(uint256 _fravoriteNumber) public {... */\n    tag_15:\n        /* \"SImpleStorage-4.sol\":634:650  _fravoriteNumber */\n      dup1\n        /* \"SImpleStorage-4.sol\":617:631  favoriteNumber */\n      0x00\n        /* \"SImpleStorage-4.sol\":617:650  favoriteNumber = _fravoriteNumber */\n      dup2\n      swap1\n      sstore\n      pop\n        /* \"SImpleStorage-4.sol\":559:657  function store(uint256 _fravoriteNumber) public {... */\n      pop\n      jump\t// out\n        /* \"SImpleStorage-4.sol\":355:552  function addPerson(string calldata _name, uint256 _favoriteNumber) public {... */\n    tag_19:\n        /* \"SImpleStorage-4.sol\":443:449  people */\n      0x02\n        /* \"SImpleStorage-4.sol\":455:484  People(_favoriteNumber,_name) */\n      mload(0x40)\n      dup1\n      0x40\n      add\n      0x40\n      mstore\n      dup1\n        /* \"SImpleStorage-4.sol\":462:477  _favoriteNumber */\n      dup4\n        /* \"SImpleStorage-4.sol\":455:484  People(_favoriteNumber,_name) */\n      dup2\n      mstore\n      0x20\n      add\n        /* \"SImpleStorage-4.sol\":478:483  _name */\n      dup6\n      dup6\n        /* \"SImpleStorage-4.sol\":455:484  People(_favoriteNumber,_name) */\n      dup1\n      dup1\n      0x1f\n      add\n      0x20\n      dup1\n      swap2\n      div\n      mul\n      0x20\n      add\n      mload(0x40)\n      swap1\n      dup2\n      add\n      0x40\n      mstore\n      dup1\n      swap4\n      swap3\n      swap2\n      swap1\n      dup2\n      dup2\n      mstore\n      0x20\n      add\n      dup4\n      dup4\n      dup1\n      dup3\n      dup5\n      calldatacopy\n      0x00\n      dup2\n      dup5\n      add\n      mstore\n      not(0x1f)\n      0x1f\n      dup3\n      add\n      and\n      swap1\n      pop\n      dup1\n      dup4\n      add\n      swap3\n      pop\n      pop\n      pop\n      pop\n      pop\n      pop\n      pop\n      dup2\n      mstore\n      pop\n        /* \"SImpleStorage-4.sol\":443:485  people.push(People(_favoriteNumber,_name)) */\n      swap1\n      dup1\n      0x01\n      dup2\n      sload\n      add\n      dup1\n      dup3\n      sstore\n      dup1\n      swap2\n      pop\n      pop\n      0x01\n      swap1\n      sub\n      swap1\n      0x00\n      mstore\n      keccak256(0x00, 0x20)\n      swap1\n      0x02\n      mul\n      add\n      0x00\n      swap1\n      swap2\n      swap1\n      swap2\n      swap1\n      swap2\n      pop\n      0x00\n      dup3\n      add\n      mload\n      dup2\n      0x00\n      add\n      sstore\n      0x20\n      dup3\n      add\n      mload\n      dup2\n      0x01\n      add\n      swap1\n      dup2\n      tag_34\n      swap2\n      swap1\n      tag_35\n      jump\t// in\n    tag_34:\n      pop\n      pop\n      pop\n        /* \"SImpleStorage-4.sol\":530:545  _favoriteNumber */\n      dup1\n        /* \"SImpleStorage-4.sol\":499:520  nameToFoavoriteNumber */\n      0x01\n        /* \"SImpleStorage-4.sol\":521:526  _name */\n      dup5\n      dup5\n        /* \"SImpleStorage-4.sol\":499:527  nameToFoavoriteNumber[_name] */\n      mload(0x40)\n      tag_36\n      swap3\n      swap2\n      swap1\n      tag_37\n      jump\t// in\n    tag_36:\n      swap1\n      dup2\n      mstore\n      0x20\n      add\n      mload(0x40)\n      dup1\n      swap2\n      sub\n      swap1\n      keccak256\n        /* \"SImpleStorage-4.sol\":499:545  nameToFoavoriteNumber[_name] = _favoriteNumber */\n      dup2\n      swap1\n      sstore\n      pop\n        /* \"SImpleStorage-4.sol\":355:552  function addPerson(string calldata _name, uint256 _favoriteNumber) public {... */\n      pop\n      pop\n      pop\n      jump\t// out\n        /* \"SImpleStorage-4.sol\":184:239  mapping(string => uint256) public nameToFoavoriteNumber */\n    tag_23:\n      0x01\n      dup2\n      dup1\n      mload\n      0x20\n      dup2\n      add\n      dup3\n      add\n      dup1\n      mload\n      dup5\n      dup3\n      mstore\n      0x20\n      dup4\n      add\n      0x20\n      dup6\n      add\n      keccak256\n      dup2\n      dup4\n      mstore\n      dup1\n      swap6\n      pop\n      pop\n      pop\n      pop\n      pop\n      pop\n      0x00\n      swap2\n      pop\n      swap1\n      pop\n      sload\n      dup2\n      jump\t// out\n        /* \"SImpleStorage-4.sol\":326:348  People[] public people */\n    tag_27:\n      0x02\n      dup2\n      dup2\n      sload\n      dup2\n      lt\n      tag_38\n      jumpi\n      0x00\n      dup1\n      revert\n    tag_38:\n      swap1\n      0x00\n      mstore\n      keccak256(0x00, 0x20)\n      swap1\n      0x02\n      mul\n      add\n      0x00\n      swap2\n      pop\n      swap1\n      pop\n      dup1\n      0x00\n      add\n      sload\n      swap1\n      dup1\n      0x01\n      add\n      dup1\n      sload\n      tag_40\n      swap1\n      tag_41\n      jump\t// in\n    tag_40:\n      dup1\n      0x1f\n      add\n      0x20\n      dup1\n      swap2\n      div\n      mul\n      0x20\n      add\n      mload(0x40)\n      swap1\n      dup2\n      add\n      0x40\n      mstore\n      dup1\n      swap3\n      swap2\n      swap1\n      dup2\n      dup2\n      mstore\n      0x20\n      add\n      dup3\n      dup1\n      sload\n      tag_42\n      swap1\n      tag_41\n      jump\t// in\n    tag_42:\n      dup1\n      iszero\n      tag_43\n      jumpi\n      dup1\n      0x1f\n      lt\n      tag_44\n      jumpi\n      0x0100\n      dup1\n      dup4\n      sload\n      div\n      mul\n      dup4\n      mstore\n      swap2\n      0x20\n      add\n      swap2\n      jump(tag_43)\n    tag_44:\n      dup3\n      add\n      swap2\n      swap1\n      0x00\n      mstore\n      keccak256(0x00, 0x20)\n      swap1\n    tag_45:\n      dup2\n      sload\n      dup2\n      mstore\n      swap1\n      0x01\n      add\n      swap1\n      0x20\n      add\n      dup1\n      dup4\n      gt\n      tag_45\n      jumpi\n      dup3\n      swap1\n      sub\n      0x1f\n      and\n      dup3\n      add\n      swap2\n    tag_43:\n      pop\n      pop\n      pop\n      pop\n      pop\n      swap1\n      pop\n      dup3\n      jump\t// out\n        /* \"#utility.yul\":7:84   */\n    tag_46:\n        /* \"#utility.yul\":44:51   */\n      0x00\n        /* \"#utility.yul\":73:78   */\n      dup2\n        /* \"#utility.yul\":62:78   */\n      swap1\n      pop\n        /* \"#utility.yul\":7:84   */\n      swap2\n      swap1\n      pop\n      jump\t// out\n        /* \"#utility.yul\":90:208   */\n    tag_47:\n        /* \"#utility.yul\":177:201   */\n      tag_91\n        /* \"#utility.yul\":195:200   */\n      dup2\n        /* \"#utility.yul\":177:201   */\n      tag_46\n      jump\t// in\n    tag_91:\n        /* \"#utility.yul\":172:175   */\n      dup3\n        /* \"#utility.yul\":165:202   */\n      mstore\n        /* \"#utility.yul\":90:208   */\n      pop\n      pop\n      jump\t// out\n        /* \"#utility.yul\":214:436   */\n    tag_11:\n        /* \"#utility.yul\":307:311   */\n      0x00\n        /* \"#utility.yul\":345:347   */\n      0x20\n        /* \"#utility.yul\":334:343   */\n      dup3\n        /* \"#utility.yul\":330:348   */\n      add\n        /* \"#utility.yul\":322:348   */\n      swap1\n      pop\n        /* \"#utility.yul\":358:429   */\n      tag_93\n        /* \"#utility.yul\":426:427   */\n      0x00\n        /* \"#utility.yul\":415:424   */\n      dup4\n        /* \"#utility.yul\":411:428   */\n      add\n        /* \"#utility.yul\":402:408   */\n      dup5\n        /* \"#utility.yul\":358:429   */\n      tag_47\n      jump\t// in\n    tag_93:\n        /* \"#utility.yul\":214:436   */\n      swap3\n      swap2\n      pop\n      pop\n      jump\t// out\n        /* \"#utility.yul\":442:517   */\n    tag_48:\n        /* \"#utility.yul\":475:481   */\n      0x00\n        /* \"#utility.yul\":508:510   */\n      0x40\n        /* \"#utility.yul\":502:511   */\n      mload\n        /* \"#utility.yul\":492:511   */\n      swap1\n      pop\n        /* \"#utility.yul\":442:517   */\n      swap1\n      jump\t// out\n        /* \"#utility.yul\":523:640   */\n    tag_49:\n        /* \"#utility.yul\":632:633   */\n      0x00\n        /* \"#utility.yul\":629:630   */\n      dup1\n        /* \"#utility.yul\":622:634   */\n      revert\n        /* \"#utility.yul\":646:763   */\n    tag_50:\n        /* \"#utility.yul\":755:756   */\n      0x00\n        /* \"#utility.yul\":752:753   */\n      dup1\n        /* \"#utility.yul\":745:757   */\n      revert\n        /* \"#utility.yul\":769:891   */\n    tag_51:\n        /* \"#utility.yul\":842:866   */\n      tag_98\n        /* \"#utility.yul\":860:865   */\n      dup2\n        /* \"#utility.yul\":842:866   */\n      tag_46\n      jump\t// in\n    tag_98:\n        /* \"#utility.yul\":835:840   */\n      dup2\n        /* \"#utility.yul\":832:867   */\n      eq\n        /* \"#utility.yul\":822:885   */\n      tag_99\n      jumpi\n        /* \"#utility.yul\":881:882   */\n      0x00\n        /* \"#utility.yul\":878:879   */\n      dup1\n        /* \"#utility.yul\":871:883   */\n      revert\n        /* \"#utility.yul\":822:885   */\n    tag_99:\n        /* \"#utility.yul\":769:891   */\n      pop\n      jump\t// out\n        /* \"#utility.yul\":897:1036   */\n    tag_52:\n        /* \"#utility.yul\":943:948   */\n      0x00\n        /* \"#utility.yul\":981:987   */\n      dup2\n        /* \"#utility.yul\":968:988   */\n      calldataload\n        /* \"#utility.yul\":959:988   */\n      swap1\n      pop\n        /* \"#utility.yul\":997:1030   */\n      tag_101\n        /* \"#utility.yul\":1024:1029   */\n      dup2\n        /* \"#utility.yul\":997:1030   */\n      tag_51\n      jump\t// in\n    tag_101:\n        /* \"#utility.yul\":897:1036   */\n      swap3\n      swap2\n      pop\n      pop\n      jump\t// out\n        /* \"#utility.yul\":1042:1371   */\n    tag_14:\n        /* \"#utility.yul\":1101:1107   */\n      0x00\n        /* \"#utility.yul\":1150:1152   */\n      0x20\n        /* \"#utility.yul\":1138:1147   */\n      dup3\n        /* \"#utility.yul\":1129:1136   */\n      dup5\n        /* \"#utility.yul\":1125:1148   */\n      sub\n        /* \"#utility.yul\":1121:1153   */\n      slt\n        /* \"#utility.yul\":1118:1237   */\n      iszero\n      tag_103\n      jumpi\n        /* \"#utility.yul\":1156:1235   */\n      tag_104\n      tag_49\n      jump\t// in\n    tag_104:\n        /* \"#utility.yul\":1118:1237   */\n    tag_103:\n        /* \"#utility.yul\":1276:1277   */\n      0x00\n        /* \"#utility.yul\":1301:1354   */\n      tag_105\n        /* \"#utility.yul\":1346:1353   */\n      dup5\n        /* \"#utility.yul\":1337:1343   */\n      dup3\n        /* \"#utility.yul\":1326:1335   */\n      dup6\n        /* \"#utility.yul\":1322:1344   */\n      add\n        /* \"#utility.yul\":1301:1354   */\n      tag_52\n      jump\t// in\n    tag_105:\n        /* \"#utility.yul\":1291:1354   */\n      swap2\n      pop\n        /* \"#utility.yul\":1247:1364   */\n      pop\n        /* \"#utility.yul\":1042:1371   */\n      swap3\n      swap2\n      pop\n      pop\n      jump\t// out\n        /* \"#utility.yul\":1377:1494   */\n    tag_53:\n        /* \"#utility.yul\":1486:1487   */\n      0x00\n        /* \"#utility.yul\":1483:1484   */\n      dup1\n        /* \"#utility.yul\":1476:1488   */\n      revert\n        /* \"#utility.yul\":1500:1617   */\n    tag_54:\n        /* \"#utility.yul\":1609:1610   */\n      0x00\n        /* \"#utility.yul\":1606:1607   */\n      dup1\n        /* \"#utility.yul\":1599:1611   */\n      revert\n        /* \"#utility.yul\":1623:1740   */\n    tag_55:\n        /* \"#utility.yul\":1732:1733   */\n      0x00\n        /* \"#utility.yul\":1729:1730   */\n      dup1\n        /* \"#utility.yul\":1722:1734   */\n      revert\n        /* \"#utility.yul\":1760:2313   */\n    tag_56:\n        /* \"#utility.yul\":1818:1826   */\n      0x00\n        /* \"#utility.yul\":1828:1834   */\n      dup1\n        /* \"#utility.yul\":1878:1881   */\n      dup4\n        /* \"#utility.yul\":1871:1875   */\n      0x1f\n        /* \"#utility.yul\":1863:1869   */\n      dup5\n        /* \"#utility.yul\":1859:1876   */\n      add\n        /* \"#utility.yul\":1855:1882   */\n      slt\n        /* \"#utility.yul\":1845:1967   */\n      tag_110\n      jumpi\n        /* \"#utility.yul\":1886:1965   */\n      tag_111\n      tag_53\n      jump\t// in\n    tag_111:\n        /* \"#utility.yul\":1845:1967   */\n    tag_110:\n        /* \"#utility.yul\":1999:2005   */\n      dup3\n        /* \"#utility.yul\":1986:2006   */\n      calldataload\n        /* \"#utility.yul\":1976:2006   */\n      swap1\n      pop\n        /* \"#utility.yul\":2029:2047   */\n      0xffffffffffffffff\n        /* \"#utility.yul\":2021:2027   */\n      dup2\n        /* \"#utility.yul\":2018:2048   */\n      gt\n        /* \"#utility.yul\":2015:2132   */\n      iszero\n      tag_112\n      jumpi\n        /* \"#utility.yul\":2051:2130   */\n      tag_113\n      tag_54\n      jump\t// in\n    tag_113:\n        /* \"#utility.yul\":2015:2132   */\n    tag_112:\n        /* \"#utility.yul\":2165:2169   */\n      0x20\n        /* \"#utility.yul\":2157:2163   */\n      dup4\n        /* \"#utility.yul\":2153:2170   */\n      add\n        /* \"#utility.yul\":2141:2170   */\n      swap2\n      pop\n        /* \"#utility.yul\":2219:2222   */\n      dup4\n        /* \"#utility.yul\":2211:2215   */\n      0x01\n        /* \"#utility.yul\":2203:2209   */\n      dup3\n        /* \"#utility.yul\":2199:2216   */\n      mul\n        /* \"#utility.yul\":2189:2197   */\n      dup4\n        /* \"#utility.yul\":2185:2217   */\n      add\n        /* \"#utility.yul\":2182:2223   */\n      gt\n        /* \"#utility.yul\":2179:2307   */\n      iszero\n      tag_114\n      jumpi\n        /* \"#utility.yul\":2226:2305   */\n      tag_115\n      tag_55\n      jump\t// in\n    tag_115:\n        /* \"#utility.yul\":2179:2307   */\n    tag_114:\n        /* \"#utility.yul\":1760:2313   */\n      swap3\n      pop\n      swap3\n      swap1\n      pop\n      jump\t// out\n        /* \"#utility.yul\":2319:2993   */\n    tag_18:\n        /* \"#utility.yul\":2399:2405   */\n      0x00\n        /* \"#utility.yul\":2407:2413   */\n      dup1\n        /* \"#utility.yul\":2415:2421   */\n      0x00\n        /* \"#utility.yul\":2464:2466   */\n      0x40\n        /* \"#utility.yul\":2452:2461   */\n      dup5\n        /* \"#utility.yul\":2443:2450   */\n      dup7\n        /* \"#utility.yul\":2439:2462   */\n      sub\n        /* \"#utility.yul\":2435:2467   */\n      slt\n        /* \"#utility.yul\":2432:2551   */\n      iszero\n      tag_117\n      jumpi\n        /* \"#utility.yul\":2470:2549   */\n      tag_118\n      tag_49\n      jump\t// in\n    tag_118:\n        /* \"#utility.yul\":2432:2551   */\n    tag_117:\n        /* \"#utility.yul\":2618:2619   */\n      0x00\n        /* \"#utility.yul\":2607:2616   */\n      dup5\n        /* \"#utility.yul\":2603:2620   */\n      add\n        /* \"#utility.yul\":2590:2621   */\n      calldataload\n        /* \"#utility.yul\":2648:2666   */\n      0xffffffffffffffff\n        /* \"#utility.yul\":2640:2646   */\n      dup2\n        /* \"#utility.yul\":2637:2667   */\n      gt\n        /* \"#utility.yul\":2634:2751   */\n      iszero\n      tag_119\n      jumpi\n        /* \"#utility.yul\":2670:2749   */\n      tag_120\n      tag_50\n      jump\t// in\n    tag_120:\n        /* \"#utility.yul\":2634:2751   */\n    tag_119:\n        /* \"#utility.yul\":2783:2848   */\n      tag_121\n        /* \"#utility.yul\":2840:2847   */\n      dup7\n        /* \"#utility.yul\":2831:2837   */\n      dup3\n        /* \"#utility.yul\":2820:2829   */\n      dup8\n        /* \"#utility.yul\":2816:2838   */\n      add\n        /* \"#utility.yul\":2783:2848   */\n      tag_56\n      jump\t// in\n    tag_121:\n        /* \"#utility.yul\":2765:2848   */\n      swap4\n      pop\n      swap4\n      pop\n        /* \"#utility.yul\":2561:2858   */\n      pop\n        /* \"#utility.yul\":2897:2899   */\n      0x20\n        /* \"#utility.yul\":2923:2976   */\n      tag_122\n        /* \"#utility.yul\":2968:2975   */\n      dup7\n        /* \"#utility.yul\":2959:2965   */\n      dup3\n        /* \"#utility.yul\":2948:2957   */\n      dup8\n        /* \"#utility.yul\":2944:2966   */\n      add\n        /* \"#utility.yul\":2923:2976   */\n      tag_52\n      jump\t// in\n    tag_122:\n        /* \"#utility.yul\":2913:2976   */\n      swap2\n      pop\n        /* \"#utility.yul\":2868:2986   */\n      pop\n        /* \"#utility.yul\":2319:2993   */\n      swap3\n      pop\n      swap3\n      pop\n      swap3\n      jump\t// out\n        /* \"#utility.yul\":2999:3116   */\n    tag_57:\n        /* \"#utility.yul\":3108:3109   */\n      0x00\n        /* \"#utility.yul\":3105:3106   */\n      dup1\n        /* \"#utility.yul\":3098:3110   */\n      revert\n        /* \"#utility.yul\":3122:3224   */\n    tag_58:\n        /* \"#utility.yul\":3163:3169   */\n      0x00\n        /* \"#utility.yul\":3214:3216   */\n      0x1f\n        /* \"#utility.yul\":3210:3217   */\n      not\n        /* \"#utility.yul\":3205:3207   */\n      0x1f\n        /* \"#utility.yul\":3198:3203   */\n      dup4\n        /* \"#utility.yul\":3194:3208   */\n      add\n        /* \"#utility.yul\":3190:3218   */\n      and\n        /* \"#utility.yul\":3180:3218   */\n      swap1\n      pop\n        /* \"#utility.yul\":3122:3224   */\n      swap2\n      swap1\n      pop\n      jump\t// out\n        /* \"#utility.yul\":3230:3410   */\n    tag_59:\n        /* \"#utility.yul\":3278:3355   */\n      0x4e487b7100000000000000000000000000000000000000000000000000000000\n        /* \"#utility.yul\":3275:3276   */\n      0x00\n        /* \"#utility.yul\":3268:3356   */\n      mstore\n        /* \"#utility.yul\":3375:3379   */\n      0x41\n        /* \"#utility.yul\":3372:3373   */\n      0x04\n        /* \"#utility.yul\":3365:3380   */\n      mstore\n        /* \"#utility.yul\":3399:3403   */\n      0x24\n        /* \"#utility.yul\":3396:3397   */\n      0x00\n        /* \"#utility.yul\":3389:3404   */\n      revert\n        /* \"#utility.yul\":3416:3697   */\n    tag_60:\n        /* \"#utility.yul\":3499:3526   */\n      tag_127\n        /* \"#utility.yul\":3521:3525   */\n      dup3\n        /* \"#utility.yul\":3499:3526   */\n      tag_58\n      jump\t// in\n    tag_127:\n        /* \"#utility.yul\":3491:3497   */\n      dup2\n        /* \"#utility.yul\":3487:3527   */\n      add\n        /* \"#utility.yul\":3629:3635   */\n      dup2\n        /* \"#utility.yul\":3617:3627   */\n      dup2\n        /* \"#utility.yul\":3614:3636   */\n      lt\n        /* \"#utility.yul\":3593:3611   */\n      0xffffffffffffffff\n        /* \"#utility.yul\":3581:3591   */\n      dup3\n        /* \"#utility.yul\":3578:3612   */\n      gt\n        /* \"#utility.yul\":3575:3637   */\n      or\n        /* \"#utility.yul\":3572:3660   */\n      iszero\n      tag_128\n      jumpi\n        /* \"#utility.yul\":3640:3658   */\n      tag_129\n      tag_59\n      jump\t// in\n    tag_129:\n        /* \"#utility.yul\":3572:3660   */\n    tag_128:\n        /* \"#utility.yul\":3680:3690   */\n      dup1\n        /* \"#utility.yul\":3676:3678   */\n      0x40\n        /* \"#utility.yul\":3669:3691   */\n      mstore\n        /* \"#utility.yul\":3459:3697   */\n      pop\n        /* \"#utility.yul\":3416:3697   */\n      pop\n      pop\n      jump\t// out\n        /* \"#utility.yul\":3703:3832   */\n    tag_61:\n        /* \"#utility.yul\":3737:3743   */\n      0x00\n        /* \"#utility.yul\":3764:3784   */\n      tag_131\n      tag_48\n      jump\t// in\n    tag_131:\n        /* \"#utility.yul\":3754:3784   */\n      swap1\n      pop\n        /* \"#utility.yul\":3793:3826   */\n      tag_132\n        /* \"#utility.yul\":3821:3825   */\n      dup3\n        /* \"#utility.yul\":3813:3819   */\n      dup3\n        /* \"#utility.yul\":3793:3826   */\n      tag_60\n      jump\t// in\n    tag_132:\n        /* \"#utility.yul\":3703:3832   */\n      swap2\n      swap1\n      pop\n      jump\t// out\n        /* \"#utility.yul\":3838:4146   */\n    tag_62:\n        /* \"#utility.yul\":3900:3904   */\n      0x00\n        /* \"#utility.yul\":3990:4008   */\n      0xffffffffffffffff\n        /* \"#utility.yul\":3982:3988   */\n      dup3\n        /* \"#utility.yul\":3979:4009   */\n      gt\n        /* \"#utility.yul\":3976:4032   */\n      iszero\n      tag_134\n      jumpi\n        /* \"#utility.yul\":4012:4030   */\n      tag_135\n      tag_59\n      jump\t// in\n    tag_135:\n        /* \"#utility.yul\":3976:4032   */\n    tag_134:\n        /* \"#utility.yul\":4050:4079   */\n      tag_136\n        /* \"#utility.yul\":4072:4078   */\n      dup3\n        /* \"#utility.yul\":4050:4079   */\n      tag_58\n      jump\t// in\n    tag_136:\n        /* \"#utility.yul\":4042:4079   */\n      swap1\n      pop\n        /* \"#utility.yul\":4134:4138   */\n      0x20\n        /* \"#utility.yul\":4128:4132   */\n      dup2\n        /* \"#utility.yul\":4124:4139   */\n      add\n        /* \"#utility.yul\":4116:4139   */\n      swap1\n      pop\n        /* \"#utility.yul\":3838:4146   */\n      swap2\n      swap1\n      pop\n      jump\t// out\n        /* \"#utility.yul\":4152:4306   */\n    tag_63:\n        /* \"#utility.yul\":4236:4242   */\n      dup3\n        /* \"#utility.yul\":4231:4234   */\n      dup2\n        /* \"#utility.yul\":4226:4229   */\n      dup4\n        /* \"#utility.yul\":4213:4243   */\n      calldatacopy\n        /* \"#utility.yul\":4298:4299   */\n      0x00\n        /* \"#utility.yul\":4289:4295   */\n      dup4\n        /* \"#utility.yul\":4284:4287   */\n      dup4\n        /* \"#utility.yul\":4280:4296   */\n      add\n        /* \"#utility.yul\":4273:4300   */\n      mstore\n        /* \"#utility.yul\":4152:4306   */\n      pop\n      pop\n      pop\n      jump\t// out\n        /* \"#utility.yul\":4312:4724   */\n    tag_64:\n        /* \"#utility.yul\":4390:4395   */\n      0x00\n        /* \"#utility.yul\":4415:4481   */\n      tag_139\n        /* \"#utility.yul\":4431:4480   */\n      tag_140\n        /* \"#utility.yul\":4473:4479   */\n      dup5\n        /* \"#utility.yul\":4431:4480   */\n      tag_62\n      jump\t// in\n    tag_140:\n        /* \"#utility.yul\":4415:4481   */\n      tag_61\n      jump\t// in\n    tag_139:\n        /* \"#utility.yul\":4406:4481   */\n      swap1\n      pop\n        /* \"#utility.yul\":4504:4510   */\n      dup3\n        /* \"#utility.yul\":4497:4502   */\n      dup2\n        /* \"#utility.yul\":4490:4511   */\n      mstore\n        /* \"#utility.yul\":4542:4546   */\n      0x20\n        /* \"#utility.yul\":4535:4540   */\n      dup2\n        /* \"#utility.yul\":4531:4547   */\n      add\n        /* \"#utility.yul\":4580:4583   */\n      dup5\n        /* \"#utility.yul\":4571:4577   */\n      dup5\n        /* \"#utility.yul\":4566:4569   */\n      dup5\n        /* \"#utility.yul\":4562:4578   */\n      add\n        /* \"#utility.yul\":4559:4584   */\n      gt\n        /* \"#utility.yul\":4556:4668   */\n      iszero\n      tag_141\n      jumpi\n        /* \"#utility.yul\":4587:4666   */\n      tag_142\n      tag_57\n      jump\t// in\n    tag_142:\n        /* \"#utility.yul\":4556:4668   */\n    tag_141:\n        /* \"#utility.yul\":4677:4718   */\n      tag_143\n        /* \"#utility.yul\":4711:4717   */\n      dup5\n        /* \"#utility.yul\":4706:4709   */\n      dup3\n        /* \"#utility.yul\":4701:4704   */\n      dup6\n        /* \"#utility.yul\":4677:4718   */\n      tag_63\n      jump\t// in\n    tag_143:\n        /* \"#utility.yul\":4396:4724   */\n      pop\n        /* \"#utility.yul\":4312:4724   */\n      swap4\n      swap3\n      pop\n      pop\n      pop\n      jump\t// out\n        /* \"#utility.yul\":4744:5084   */\n    tag_65:\n        /* \"#utility.yul\":4800:4805   */\n      0x00\n        /* \"#utility.yul\":4849:4852   */\n      dup3\n        /* \"#utility.yul\":4842:4846   */\n      0x1f\n        /* \"#utility.yul\":4834:4840   */\n      dup4\n        /* \"#utility.yul\":4830:4847   */\n      add\n        /* \"#utility.yul\":4826:4853   */\n      slt\n        /* \"#utility.yul\":4816:4938   */\n      tag_145\n      jumpi\n        /* \"#utility.yul\":4857:4936   */\n      tag_146\n      tag_53\n      jump\t// in\n    tag_146:\n        /* \"#utility.yul\":4816:4938   */\n    tag_145:\n        /* \"#utility.yul\":4974:4980   */\n      dup2\n        /* \"#utility.yul\":4961:4981   */\n      calldataload\n        /* \"#utility.yul\":4999:5078   */\n      tag_147\n        /* \"#utility.yul\":5074:5077   */\n      dup5\n        /* \"#utility.yul\":5066:5072   */\n      dup3\n        /* \"#utility.yul\":5059:5063   */\n      0x20\n        /* \"#utility.yul\":5051:5057   */\n      dup7\n        /* \"#utility.yul\":5047:5064   */\n      add\n        /* \"#utility.yul\":4999:5078   */\n      tag_64\n      jump\t// in\n    tag_147:\n        /* \"#utility.yul\":4990:5078   */\n      swap2\n      pop\n        /* \"#utility.yul\":4806:5084   */\n      pop\n        /* \"#utility.yul\":4744:5084   */\n      swap3\n      swap2\n      pop\n      pop\n      jump\t// out\n        /* \"#utility.yul\":5090:5599   */\n    tag_22:\n        /* \"#utility.yul\":5159:5165   */\n      0x00\n        /* \"#utility.yul\":5208:5210   */\n      0x20\n        /* \"#utility.yul\":5196:5205   */\n      dup3\n        /* \"#utility.yul\":5187:5194   */\n      dup5\n        /* \"#utility.yul\":5183:5206   */\n      sub\n        /* \"#utility.yul\":5179:5211   */\n      slt\n        /* \"#utility.yul\":5176:5295   */\n      iszero\n      tag_149\n      jumpi\n        /* \"#utility.yul\":5214:5293   */\n      tag_150\n      tag_49\n      jump\t// in\n    tag_150:\n        /* \"#utility.yul\":5176:5295   */\n    tag_149:\n        /* \"#utility.yul\":5362:5363   */\n      0x00\n        /* \"#utility.yul\":5351:5360   */\n      dup3\n        /* \"#utility.yul\":5347:5364   */\n      add\n        /* \"#utility.yul\":5334:5365   */\n      calldataload\n        /* \"#utility.yul\":5392:5410   */\n      0xffffffffffffffff\n        /* \"#utility.yul\":5384:5390   */\n      dup2\n        /* \"#utility.yul\":5381:5411   */\n      gt\n        /* \"#utility.yul\":5378:5495   */\n      iszero\n      tag_151\n      jumpi\n        /* \"#utility.yul\":5414:5493   */\n      tag_152\n      tag_50\n      jump\t// in\n    tag_152:\n        /* \"#utility.yul\":5378:5495   */\n    tag_151:\n        /* \"#utility.yul\":5519:5582   */\n      tag_153\n        /* \"#utility.yul\":5574:5581   */\n      dup5\n        /* \"#utility.yul\":5565:5571   */\n      dup3\n        /* \"#utility.yul\":5554:5563   */\n      dup6\n        /* \"#utility.yul\":5550:5572   */\n      add\n        /* \"#utility.yul\":5519:5582   */\n      tag_65\n      jump\t// in\n    tag_153:\n        /* \"#utility.yul\":5509:5582   */\n      swap2\n      pop\n        /* \"#utility.yul\":5305:5592   */\n      pop\n        /* \"#utility.yul\":5090:5599   */\n      swap3\n      swap2\n      pop\n      pop\n      jump\t// out\n        /* \"#utility.yul\":5605:5704   */\n    tag_66:\n        /* \"#utility.yul\":5657:5663   */\n      0x00\n        /* \"#utility.yul\":5691:5696   */\n      dup2\n        /* \"#utility.yul\":5685:5697   */\n      mload\n        /* \"#utility.yul\":5675:5697   */\n      swap1\n      pop\n        /* \"#utility.yul\":5605:5704   */\n      swap2\n      swap1\n      pop\n      jump\t// out\n        /* \"#utility.yul\":5710:5879   */\n    tag_67:\n        /* \"#utility.yul\":5794:5805   */\n      0x00\n        /* \"#utility.yul\":5828:5834   */\n      dup3\n        /* \"#utility.yul\":5823:5826   */\n      dup3\n        /* \"#utility.yul\":5816:5835   */\n      mstore\n        /* \"#utility.yul\":5868:5872   */\n      0x20\n        /* \"#utility.yul\":5863:5866   */\n      dup3\n        /* \"#utility.yul\":5859:5873   */\n      add\n        /* \"#utility.yul\":5844:5873   */\n      swap1\n      pop\n        /* \"#utility.yul\":5710:5879   */\n      swap3\n      swap2\n      pop\n      pop\n      jump\t// out\n        /* \"#utility.yul\":5885:6192   */\n    tag_68:\n        /* \"#utility.yul\":5953:5954   */\n      0x00\n        /* \"#utility.yul\":5963:6076   */\n    tag_157:\n        /* \"#utility.yul\":5977:5983   */\n      dup4\n        /* \"#utility.yul\":5974:5975   */\n      dup2\n        /* \"#utility.yul\":5971:5984   */\n      lt\n        /* \"#utility.yul\":5963:6076   */\n      iszero\n      tag_159\n      jumpi\n        /* \"#utility.yul\":6062:6063   */\n      dup1\n        /* \"#utility.yul\":6057:6060   */\n      dup3\n        /* \"#utility.yul\":6053:6064   */\n      add\n        /* \"#utility.yul\":6047:6065   */\n      mload\n        /* \"#utility.yul\":6043:6044   */\n      dup2\n        /* \"#utility.yul\":6038:6041   */\n      dup5\n        /* \"#utility.yul\":6034:6045   */\n      add\n        /* \"#utility.yul\":6027:6066   */\n      mstore\n        /* \"#utility.yul\":5999:6001   */\n      0x20\n        /* \"#utility.yul\":5996:5997   */\n      dup2\n        /* \"#utility.yul\":5992:6002   */\n      add\n        /* \"#utility.yul\":5987:6002   */\n      swap1\n      pop\n        /* \"#utility.yul\":5963:6076   */\n      jump(tag_157)\n    tag_159:\n        /* \"#utility.yul\":6094:6100   */\n      dup4\n        /* \"#utility.yul\":6091:6092   */\n      dup2\n        /* \"#utility.yul\":6088:6101   */\n      gt\n        /* \"#utility.yul\":6085:6186   */\n      iszero\n      tag_160\n      jumpi\n        /* \"#utility.yul\":6174:6175   */\n      0x00\n        /* \"#utility.yul\":6165:6171   */\n      dup5\n        /* \"#utility.yul\":6160:6163   */\n      dup5\n        /* \"#utility.yul\":6156:6172   */\n      add\n        /* \"#utility.yul\":6149:6176   */\n      mstore\n        /* \"#utility.yul\":6085:6186   */\n    tag_160:\n        /* \"#utility.yul\":5934:6192   */\n      pop\n        /* \"#utility.yul\":5885:6192   */\n      pop\n      pop\n      pop\n      jump\t// out\n        /* \"#utility.yul\":6198:6562   */\n    tag_69:\n        /* \"#utility.yul\":6286:6289   */\n      0x00\n        /* \"#utility.yul\":6314:6353   */\n      tag_162\n        /* \"#utility.yul\":6347:6352   */\n      dup3\n        /* \"#utility.yul\":6314:6353   */\n      tag_66\n      jump\t// in\n    tag_162:\n        /* \"#utility.yul\":6369:6440   */\n      tag_163\n        /* \"#utility.yul\":6433:6439   */\n      dup2\n        /* \"#utility.yul\":6428:6431   */\n      dup6\n        /* \"#utility.yul\":6369:6440   */\n      tag_67\n      jump\t// in\n    tag_163:\n        /* \"#utility.yul\":6362:6440   */\n      swap4\n      pop\n        /* \"#utility.yul\":6449:6501   */\n      tag_164\n        /* \"#utility.yul\":6494:6500   */\n      dup2\n        /* \"#utility.yul\":6489:6492   */\n      dup6\n        /* \"#utility.yul\":6482:6486   */\n      0x20\n        /* \"#utility.yul\":6475:6480   */\n      dup7\n        /* \"#utility.yul\":6471:6487   */\n      add\n        /* \"#utility.yul\":6449:6501   */\n      tag_68\n      jump\t// in\n    tag_164:\n        /* \"#utility.yul\":6526:6555   */\n      tag_165\n        /* \"#utility.yul\":6548:6554   */\n      dup2\n        /* \"#utility.yul\":6526:6555   */\n      tag_58\n      jump\t// in\n    tag_165:\n        /* \"#utility.yul\":6521:6524   */\n      dup5\n        /* \"#utility.yul\":6517:6556   */\n      add\n        /* \"#utility.yul\":6510:6556   */\n      swap2\n      pop\n        /* \"#utility.yul\":6290:6562   */\n      pop\n        /* \"#utility.yul\":6198:6562   */\n      swap3\n      swap2\n      pop\n      pop\n      jump\t// out\n        /* \"#utility.yul\":6568:6991   */\n    tag_29:\n        /* \"#utility.yul\":6709:6713   */\n      0x00\n        /* \"#utility.yul\":6747:6749   */\n      0x40\n        /* \"#utility.yul\":6736:6745   */\n      dup3\n        /* \"#utility.yul\":6732:6750   */\n      add\n        /* \"#utility.yul\":6724:6750   */\n      swap1\n      pop\n        /* \"#utility.yul\":6760:6831   */\n      tag_167\n        /* \"#utility.yul\":6828:6829   */\n      0x00\n        /* \"#utility.yul\":6817:6826   */\n      dup4\n        /* \"#utility.yul\":6813:6830   */\n      add\n        /* \"#utility.yul\":6804:6810   */\n      dup6\n        /* \"#utility.yul\":6760:6831   */\n      tag_47\n      jump\t// in\n    tag_167:\n        /* \"#utility.yul\":6878:6887   */\n      dup2\n        /* \"#utility.yul\":6872:6876   */\n      dup2\n        /* \"#utility.yul\":6868:6888   */\n      sub\n        /* \"#utility.yul\":6863:6865   */\n      0x20\n        /* \"#utility.yul\":6852:6861   */\n      dup4\n        /* \"#utility.yul\":6848:6866   */\n      add\n        /* \"#utility.yul\":6841:6889   */\n      mstore\n        /* \"#utility.yul\":6906:6984   */\n      tag_168\n        /* \"#utility.yul\":6979:6983   */\n      dup2\n        /* \"#utility.yul\":6970:6976   */\n      dup5\n        /* \"#utility.yul\":6906:6984   */\n      tag_69\n      jump\t// in\n    tag_168:\n        /* \"#utility.yul\":6898:6984   */\n      swap1\n      pop\n        /* \"#utility.yul\":6568:6991   */\n      swap4\n      swap3\n      pop\n      pop\n      pop\n      jump\t// out\n        /* \"#utility.yul\":6997:7177   */\n    tag_70:\n        /* \"#utility.yul\":7045:7122   */\n      0x4e487b7100000000000000000000000000000000000000000000000000000000\n        /* \"#utility.yul\":7042:7043   */\n      0x00\n        /* \"#utility.yul\":7035:7123   */\n      mstore\n        /* \"#utility.yul\":7142:7146   */\n      0x22\n        /* \"#utility.yul\":7139:7140   */\n      0x04\n        /* \"#utility.yul\":7132:7147   */\n      mstore\n        /* \"#utility.yul\":7166:7170   */\n      0x24\n        /* \"#utility.yul\":7163:7164   */\n      0x00\n        /* \"#utility.yul\":7156:7171   */\n      revert\n        /* \"#utility.yul\":7183:7503   */\n    tag_41:\n        /* \"#utility.yul\":7227:7233   */\n      0x00\n        /* \"#utility.yul\":7264:7265   */\n      0x02\n        /* \"#utility.yul\":7258:7262   */\n      dup3\n        /* \"#utility.yul\":7254:7266   */\n      div\n        /* \"#utility.yul\":7244:7266   */\n      swap1\n      pop\n        /* \"#utility.yul\":7311:7312   */\n      0x01\n        /* \"#utility.yul\":7305:7309   */\n      dup3\n        /* \"#utility.yul\":7301:7313   */\n      and\n        /* \"#utility.yul\":7332:7350   */\n      dup1\n        /* \"#utility.yul\":7322:7403   */\n      tag_171\n      jumpi\n        /* \"#utility.yul\":7388:7392   */\n      0x7f\n        /* \"#utility.yul\":7380:7386   */\n      dup3\n        /* \"#utility.yul\":7376:7393   */\n      and\n        /* \"#utility.yul\":7366:7393   */\n      swap2\n      pop\n        /* \"#utility.yul\":7322:7403   */\n    tag_171:\n        /* \"#utility.yul\":7450:7452   */\n      0x20\n        /* \"#utility.yul\":7442:7448   */\n      dup3\n        /* \"#utility.yul\":7439:7453   */\n      lt\n        /* \"#utility.yul\":7419:7437   */\n      dup2\n        /* \"#utility.yul\":7416:7454   */\n      sub\n        /* \"#utility.yul\":7413:7497   */\n      tag_172\n      jumpi\n        /* \"#utility.yul\":7469:7487   */\n      tag_173\n      tag_70\n      jump\t// in\n    tag_173:\n        /* \"#utility.yul\":7413:7497   */\n    tag_172:\n        /* \"#utility.yul\":7234:7503   */\n      pop\n        /* \"#utility.yul\":7183:7503   */\n      swap2\n      swap1\n      pop\n      jump\t// out\n        /* \"#utility.yul\":7509:7650   */\n    tag_71:\n        /* \"#utility.yul\":7558:7562   */\n      0x00\n        /* \"#utility.yul\":7581:7584   */\n      dup2\n        /* \"#utility.yul\":7573:7584   */\n      swap1\n      pop\n        /* \"#utility.yul\":7604:7607   */\n      dup2\n        /* \"#utility.yul\":7601:7602   */\n      0x00\n        /* \"#utility.yul\":7594:7608   */\n      mstore\n        /* \"#utility.yul\":7638:7642   */\n      0x20\n        /* \"#utility.yul\":7635:7636   */\n      0x00\n        /* \"#utility.yul\":7625:7643   */\n      keccak256\n        /* \"#utility.yul\":7617:7643   */\n      swap1\n      pop\n        /* \"#utility.yul\":7509:7650   */\n      swap2\n      swap1\n      pop\n      jump\t// out\n        /* \"#utility.yul\":7656:7749   */\n    tag_72:\n        /* \"#utility.yul\":7693:7699   */\n      0x00\n        /* \"#utility.yul\":7740:7742   */\n      0x20\n        /* \"#utility.yul\":7735:7737   */\n      0x1f\n        /* \"#utility.yul\":7728:7733   */\n      dup4\n        /* \"#utility.yul\":7724:7738   */\n      add\n        /* \"#utility.yul\":7720:7743   */\n      div\n        /* \"#utility.yul\":7710:7743   */\n      swap1\n      pop\n        /* \"#utility.yul\":7656:7749   */\n      swap2\n      swap1\n      pop\n      jump\t// out\n        /* \"#utility.yul\":7755:7862   */\n    tag_73:\n        /* \"#utility.yul\":7799:7807   */\n      0x00\n        /* \"#utility.yul\":7849:7854   */\n      dup3\n        /* \"#utility.yul\":7843:7847   */\n      dup3\n        /* \"#utility.yul\":7839:7855   */\n      shl\n        /* \"#utility.yul\":7818:7855   */\n      swap1\n      pop\n        /* \"#utility.yul\":7755:7862   */\n      swap3\n      swap2\n      pop\n      pop\n      jump\t// out\n        /* \"#utility.yul\":7868:8261   */\n    tag_74:\n        /* \"#utility.yul\":7937:7943   */\n      0x00\n        /* \"#utility.yul\":7987:7988   */\n      0x08\n        /* \"#utility.yul\":7975:7985   */\n      dup4\n        /* \"#utility.yul\":7971:7989   */\n      mul\n        /* \"#utility.yul\":8010:8107   */\n      tag_178\n        /* \"#utility.yul\":8040:8106   */\n      0xffffffffffffffffffffffffffffffffffffffffffffffffffffffffffffffff\n        /* \"#utility.yul\":8029:8038   */\n      dup3\n        /* \"#utility.yul\":8010:8107   */\n      tag_73\n      jump\t// in\n    tag_178:\n        /* \"#utility.yul\":8128:8167   */\n      tag_179\n        /* \"#utility.yul\":8158:8166   */\n      dup7\n        /* \"#utility.yul\":8147:8156   */\n      dup4\n        /* \"#utility.yul\":8128:8167   */\n      tag_73\n      jump\t// in\n    tag_179:\n        /* \"#utility.yul\":8116:8167   */\n      swap6\n      pop\n        /* \"#utility.yul\":8200:8204   */\n      dup1\n        /* \"#utility.yul\":8196:8205   */\n      not\n        /* \"#utility.yul\":8189:8194   */\n      dup5\n        /* \"#utility.yul\":8185:8206   */\n      and\n        /* \"#utility.yul\":8176:8206   */\n      swap4\n      pop\n        /* \"#utility.yul\":8249:8253   */\n      dup1\n        /* \"#utility.yul\":8239:8247   */\n      dup7\n        /* \"#utility.yul\":8235:8254   */\n      and\n        /* \"#utility.yul\":8228:8233   */\n      dup5\n        /* \"#utility.yul\":8225:8255   */\n      or\n        /* \"#utility.yul\":8215:8255   */\n      swap3\n      pop\n        /* \"#utility.yul\":7944:8261   */\n      pop\n      pop\n        /* \"#utility.yul\":7868:8261   */\n      swap4\n      swap3\n      pop\n      pop\n      pop\n      jump\t// out\n        /* \"#utility.yul\":8267:8327   */\n    tag_75:\n        /* \"#utility.yul\":8295:8298   */\n      0x00\n        /* \"#utility.yul\":8316:8321   */\n      dup2\n        /* \"#utility.yul\":8309:8321   */\n      swap1\n      pop\n        /* \"#utility.yul\":8267:8327   */\n      swap2\n      swap1\n      pop\n      jump\t// out\n        /* \"#utility.yul\":8333:8475   */\n    tag_76:\n        /* \"#utility.yul\":8383:8392   */\n      0x00\n        /* \"#utility.yul\":8416:8469   */\n      tag_182\n        /* \"#utility.yul\":8434:8468   */\n      tag_183\n        /* \"#utility.yul\":8443:8467   */\n      tag_184\n        /* \"#utility.yul\":8461:8466   */\n      dup5\n        /* \"#utility.yul\":8443:8467   */\n      tag_46\n      jump\t// in\n    tag_184:\n        /* \"#utility.yul\":8434:8468   */\n      tag_75\n      jump\t// in\n    tag_183:\n        /* \"#utility.yul\":8416:8469   */\n      tag_46\n      jump\t// in\n    tag_182:\n        /* \"#utility.yul\":8403:8469   */\n      swap1\n      pop\n        /* \"#utility.yul\":8333:8475   */\n      swap2\n      swap1\n      pop\n      jump\t// out\n        /* \"#utility.yul\":8481:8556   */\n    tag_77:\n        /* \"#utility.yul\":8524:8527   */\n      0x00\n        /* \"#utility.yul\":8545:8550   */\n      dup2\n        /* \"#utility.yul\":8538:8550   */\n      swap1\n      pop\n        /* \"#utility.yul\":8481:8556   */\n      swap2\n      swap1\n      pop\n      jump\t// out\n        /* \"#utility.yul\":8562:8831   */\n    tag_78:\n        /* \"#utility.yul\":8672:8711   */\n      tag_187\n        /* \"#utility.yul\":8703:8710   */\n      dup4\n        /* \"#utility.yul\":8672:8711   */\n      tag_76\n      jump\t// in\n    tag_187:\n        /* \"#utility.yul\":8733:8824   */\n      tag_188\n        /* \"#utility.yul\":8782:8823   */\n      tag_189\n        /* \"#utility.yul\":8806:8822   */\n      dup3\n        /* \"#utility.yul\":8782:8823   */\n      tag_77\n      jump\t// in\n    tag_189:\n        /* \"#utility.yul\":8774:8780   */\n      dup5\n        /* \"#utility.yul\":8767:8771   */\n      dup5\n        /* \"#utility.yul\":8761:8772   */\n      sload\n        /* \"#utility.yul\":8733:8824   */\n      tag_74\n      jump\t// in\n    tag_188:\n        /* \"#utility.yul\":8727:8731   */\n      dup3\n        /* \"#utility.yul\":8720:8825   */\n      sstore\n        /* \"#utility.yul\":8638:8831   */\n      pop\n        /* \"#utility.yul\":8562:8831   */\n      pop\n      pop\n      pop\n      jump\t// out\n        /* \"#utility.yul\":8837:8910   */\n    tag_79:\n        /* \"#utility.yul\":8882:8885   */\n      0x00\n        /* \"#utility.yul\":8837:8910   */\n      swap1\n      jump\t// out\n        /* \"#utility.yul\":8916:9105   */\n    tag_80:\n        /* \"#utility.yul\":8993:9025   */\n      tag_192\n      tag_79\n      jump\t// in\n    tag_192:\n        /* \"#utility.yul\":9034:9099   */\n      tag_193\n        /* \"#utility.yul\":9092:9098   */\n      dup2\n        /* \"#utility.yul\":9084:9090   */\n      dup5\n        /* \"#utility.yul\":9078:9082   */\n      dup5\n        /* \"#utility.yul\":9034:9099   */\n      tag_78\n      jump\t// in\n    tag_193:\n        /* \"#utility.yul\":8969:9105   */\n      pop\n        /* \"#utility.yul\":8916:9105   */\n      pop\n      pop\n      jump\t// out\n        /* \"#utility.yul\":9111:9297   */\n    tag_81:\n        /* \"#utility.yul\":9171:9291   */\n    tag_195:\n        /* \"#utility.yul\":9188:9191   */\n      dup2\n        /* \"#utility.yul\":9181:9186   */\n      dup2\n        /* \"#utility.yul\":9178:9192   */\n      lt\n        /* \"#utility.yul\":9171:9291   */\n      iszero\n      tag_197\n      jumpi\n        /* \"#utility.yul\":9242:9281   */\n      tag_198\n        /* \"#utility.yul\":9279:9280   */\n      0x00\n        /* \"#utility.yul\":9272:9277   */\n      dup3\n        /* \"#utility.yul\":9242:9281   */\n      tag_80\n      jump\t// in\n    tag_198:\n        /* \"#utility.yul\":9215:9216   */\n      0x01\n        /* \"#utility.yul\":9208:9213   */\n      dup2\n        /* \"#utility.yul\":9204:9217   */\n      add\n        /* \"#utility.yul\":9195:9217   */\n      swap1\n      pop\n        /* \"#utility.yul\":9171:9291   */\n      jump(tag_195)\n    tag_197:\n        /* \"#utility.yul\":9111:9297   */\n      pop\n      pop\n      jump\t// out\n        /* \"#utility.yul\":9303:9846   */\n    tag_82:\n        /* \"#utility.yul\":9404:9406   */\n      0x1f\n        /* \"#utility.yul\":9399:9402   */\n      dup3\n        /* \"#utility.yul\":9396:9407   */\n      gt\n        /* \"#utility.yul\":9393:9839   */\n      iszero\n      tag_200\n      jumpi\n        /* \"#utility.yul\":9438:9476   */\n      tag_201\n        /* \"#utility.yul\":9470:9475   */\n      dup2\n        /* \"#utility.yul\":9438:9476   */\n      tag_71\n      jump\t// in\n    tag_201:\n        /* \"#utility.yul\":9522:9551   */\n      tag_202\n        /* \"#utility.yul\":9540:9550   */\n      dup5\n        /* \"#utility.yul\":9522:9551   */\n      tag_72\n      jump\t// in\n    tag_202:\n        /* \"#utility.yul\":9512:9520   */\n      dup2\n        /* \"#utility.yul\":9508:9552   */\n      add\n        /* \"#utility.yul\":9705:9707   */\n      0x20\n        /* \"#utility.yul\":9693:9703   */\n      dup6\n        /* \"#utility.yul\":9690:9708   */\n      lt\n        /* \"#utility.yul\":9687:9736   */\n      iszero\n      tag_203\n      jumpi\n        /* \"#utility.yul\":9726:9734   */\n      dup2\n        /* \"#utility.yul\":9711:9734   */\n      swap1\n      pop\n        /* \"#utility.yul\":9687:9736   */\n    tag_203:\n        /* \"#utility.yul\":9749:9829   */\n      tag_204\n        /* \"#utility.yul\":9805:9827   */\n      tag_205\n        /* \"#utility.yul\":9823:9826   */\n      dup6\n        /* \"#utility.yul\":9805:9827   */\n      tag_72\n      jump\t// in\n    tag_205:\n        /* \"#utility.yul\":9795:9803   */\n      dup4\n        /* \"#utility.yul\":9791:9828   */\n      add\n        /* \"#utility.yul\":9778:9789   */\n      dup3\n        /* \"#utility.yul\":9749:9829   */\n      tag_81\n      jump\t// in\n    tag_204:\n        /* \"#utility.yul\":9408:9839   */\n      pop\n      pop\n        /* \"#utility.yul\":9393:9839   */\n    tag_200:\n        /* \"#utility.yul\":9303:9846   */\n      pop\n      pop\n      pop\n      jump\t// out\n        /* \"#utility.yul\":9852:9969   */\n    tag_83:\n        /* \"#utility.yul\":9906:9914   */\n      0x00\n        /* \"#utility.yul\":9956:9961   */\n      dup3\n        /* \"#utility.yul\":9950:9954   */\n      dup3\n        /* \"#utility.yul\":9946:9962   */\n      shr\n        /* \"#utility.yul\":9925:9962   */\n      swap1\n      pop\n        /* \"#utility.yul\":9852:9969   */\n      swap3\n      swap2\n      pop\n      pop\n      jump\t// out\n        /* \"#utility.yul\":9975:10144   */\n    tag_84:\n        /* \"#utility.yul\":10019:10025   */\n      0x00\n        /* \"#utility.yul\":10052:10103   */\n      tag_208\n        /* \"#utility.yul\":10100:10101   */\n      0x00\n        /* \"#utility.yul\":10096:10102   */\n      not\n        /* \"#utility.yul\":10088:10093   */\n      dup5\n        /* \"#utility.yul\":10085:10086   */\n      0x08\n        /* \"#utility.yul\":10081:10094   */\n      mul\n        /* \"#utility.yul\":10052:10103   */\n      tag_83\n      jump\t// in\n    tag_208:\n        /* \"#utility.yul\":10048:10104   */\n      not\n        /* \"#utility.yul\":10133:10137   */\n      dup1\n        /* \"#utility.yul\":10127:10131   */\n      dup4\n        /* \"#utility.yul\":10123:10138   */\n      and\n        /* \"#utility.yul\":10113:10138   */\n      swap2\n      pop\n        /* \"#utility.yul\":10026:10144   */\n      pop\n        /* \"#utility.yul\":9975:10144   */\n      swap3\n      swap2\n      pop\n      pop\n      jump\t// out\n        /* \"#utility.yul\":10149:10444   */\n    tag_85:\n        /* \"#utility.yul\":10225:10229   */\n      0x00\n        /* \"#utility.yul\":10371:10400   */\n      tag_210\n        /* \"#utility.yul\":10396:10399   */\n      dup4\n        /* \"#utility.yul\":10390:10394   */\n      dup4\n        /* \"#utility.yul\":10371:10400   */\n      tag_84\n      jump\t// in\n    tag_210:\n        /* \"#utility.yul\":10363:10400   */\n      swap2\n      pop\n        /* \"#utility.yul\":10433:10436   */\n      dup3\n        /* \"#utility.yul\":10430:10431   */\n      0x02\n        /* \"#utility.yul\":10426:10437   */\n      mul\n        /* \"#utility.yul\":10420:10424   */\n      dup3\n        /* \"#utility.yul\":10417:10438   */\n      or\n        /* \"#utility.yul\":10409:10438   */\n      swap1\n      pop\n        /* \"#utility.yul\":10149:10444   */\n      swap3\n      swap2\n      pop\n      pop\n      jump\t// out\n        /* \"#utility.yul\":10449:11844   */\n    tag_35:\n        /* \"#utility.yul\":10566:10603   */\n      tag_212\n        /* \"#utility.yul\":10599:10602   */\n      dup3\n        /* \"#utility.yul\":10566:10603   */\n      tag_66\n      jump\t// in\n    tag_212:\n        /* \"#utility.yul\":10668:10686   */\n      0xffffffffffffffff\n        /* \"#utility.yul\":10660:10666   */\n      dup2\n        /* \"#utility.yul\":10657:10687   */\n      gt\n        /* \"#utility.yul\":10654:10710   */\n      iszero\n      tag_213\n      jumpi\n        /* \"#utility.yul\":10690:10708   */\n      tag_214\n      tag_59\n      jump\t// in\n    tag_214:\n        /* \"#utility.yul\":10654:10710   */\n    tag_213:\n        /* \"#utility.yul\":10734:10772   */\n      tag_215\n        /* \"#utility.yul\":10766:10770   */\n      dup3\n        /* \"#utility.yul\":10760:10771   */\n      sload\n        /* \"#utility.yul\":10734:10772   */\n      tag_41\n      jump\t// in\n    tag_215:\n        /* \"#utility.yul\":10819:10886   */\n      tag_216\n        /* \"#utility.yul\":10879:10885   */\n      dup3\n        /* \"#utility.yul\":10871:10877   */\n      dup3\n        /* \"#utility.yul\":10865:10869   */\n      dup6\n        /* \"#utility.yul\":10819:10886   */\n      tag_82\n      jump\t// in\n    tag_216:\n        /* \"#utility.yul\":10913:10914   */\n      0x00\n        /* \"#utility.yul\":10937:10941   */\n      0x20\n        /* \"#utility.yul\":10924:10941   */\n      swap1\n      pop\n        /* \"#utility.yul\":10969:10971   */\n      0x1f\n        /* \"#utility.yul\":10961:10967   */\n      dup4\n        /* \"#utility.yul\":10958:10972   */\n      gt\n        /* \"#utility.yul\":10986:10987   */\n      0x01\n        /* \"#utility.yul\":10981:11599   */\n      dup2\n      eq\n      tag_218\n      jumpi\n        /* \"#utility.yul\":11643:11644   */\n      0x00\n        /* \"#utility.yul\":11660:11666   */\n      dup5\n        /* \"#utility.yul\":11657:11734   */\n      iszero\n      tag_219\n      jumpi\n        /* \"#utility.yul\":11709:11718   */\n      dup3\n        /* \"#utility.yul\":11704:11707   */\n      dup8\n        /* \"#utility.yul\":11700:11719   */\n      add\n        /* \"#utility.yul\":11694:11720   */\n      mload\n        /* \"#utility.yul\":11685:11720   */\n      swap1\n      pop\n        /* \"#utility.yul\":11657:11734   */\n    tag_219:\n        /* \"#utility.yul\":11760:11827   */\n      tag_220\n        /* \"#utility.yul\":11820:11826   */\n      dup6\n        /* \"#utility.yul\":11813:11818   */\n      dup3\n        /* \"#utility.yul\":11760:11827   */\n      tag_85\n      jump\t// in\n    tag_220:\n        /* \"#utility.yul\":11754:11758   */\n      dup7\n        /* \"#utility.yul\":11747:11828   */\n      sstore\n        /* \"#utility.yul\":11616:11838   */\n      pop\n        /* \"#utility.yul\":10951:11838   */\n      jump(tag_217)\n        /* \"#utility.yul\":10981:11599   */\n    tag_218:\n        /* \"#utility.yul\":11033:11037   */\n      0x1f\n        /* \"#utility.yul\":11029:11038   */\n      not\n        /* \"#utility.yul\":11021:11027   */\n      dup5\n        /* \"#utility.yul\":11017:11039   */\n      and\n        /* \"#utility.yul\":11067:11104   */\n      tag_221\n        /* \"#utility.yul\":11099:11103   */\n      dup7\n        /* \"#utility.yul\":11067:11104   */\n      tag_71\n      jump\t// in\n    tag_221:\n        /* \"#utility.yul\":11126:11127   */\n      0x00\n        /* \"#utility.yul\":11140:11348   */\n    tag_222:\n        /* \"#utility.yul\":11154:11161   */\n      dup3\n        /* \"#utility.yul\":11151:11152   */\n      dup2\n        /* \"#utility.yul\":11148:11162   */\n      lt\n        /* \"#utility.yul\":11140:11348   */\n      iszero\n      tag_224\n      jumpi\n        /* \"#utility.yul\":11233:11242   */\n      dup5\n        /* \"#utility.yul\":11228:11231   */\n      dup10\n        /* \"#utility.yul\":11224:11243   */\n      add\n        /* \"#utility.yul\":11218:11244   */\n      mload\n        /* \"#utility.yul\":11210:11216   */\n      dup3\n        /* \"#utility.yul\":11203:11245   */\n      sstore\n        /* \"#utility.yul\":11284:11285   */\n      0x01\n        /* \"#utility.yul\":11276:11282   */\n      dup3\n        /* \"#utility.yul\":11272:11286   */\n      add\n        /* \"#utility.yul\":11262:11286   */\n      swap2\n      pop\n        /* \"#utility.yul\":11331:11333   */\n      0x20\n        /* \"#utility.yul\":11320:11329   */\n      dup6\n        /* \"#utility.yul\":11316:11334   */\n      add\n        /* \"#utility.yul\":11303:11334   */\n      swap5\n      pop\n        /* \"#utility.yul\":11177:11181   */\n      0x20\n        /* \"#utility.yul\":11174:11175   */\n      dup2\n        /* \"#utility.yul\":11170:11182   */\n      add\n        /* \"#utility.yul\":11165:11182   */\n      swap1\n      pop\n        /* \"#utility.yul\":11140:11348   */\n      jump(tag_222)\n    tag_224:\n        /* \"#utility.yul\":11376:11382   */\n      dup7\n        /* \"#utility.yul\":11367:11374   */\n      dup4\n        /* \"#utility.yul\":11364:11383   */\n      lt\n        /* \"#utility.yul\":11361:11540   */\n      iszero\n      tag_225\n      jumpi\n        /* \"#utility.yul\":11434:11443   */\n      dup5\n        /* \"#utility.yul\":11429:11432   */\n      dup10\n        /* \"#utility.yul\":11425:11444   */\n      add\n        /* \"#utility.yul\":11419:11445   */\n      mload\n        /* \"#utility.yul\":11477:11525   */\n      tag_226\n        /* \"#utility.yul\":11519:11523   */\n      0x1f\n        /* \"#utility.yul\":11511:11517   */\n      dup10\n        /* \"#utility.yul\":11507:11524   */\n      and\n        /* \"#utility.yul\":11496:11505   */\n      dup3\n        /* \"#utility.yul\":11477:11525   */\n      tag_84\n      jump\t// in\n    tag_226:\n        /* \"#utility.yul\":11469:11475   */\n      dup4\n        /* \"#utility.yul\":11462:11526   */\n      sstore\n        /* \"#utility.yul\":11384:11540   */\n      pop\n        /* \"#utility.yul\":11361:11540   */\n    tag_225:\n        /* \"#utility.yul\":11586:11587   */\n      0x01\n        /* \"#utility.yul\":11582:11583   */\n      0x02\n        /* \"#utility.yul\":11574:11580   */\n      dup9\n        /* \"#utility.yul\":11570:11584   */\n      mul\n        /* \"#utility.yul\":11566:11588   */\n      add\n        /* \"#utility.yul\":11560:11564   */\n      dup9\n        /* \"#utility.yul\":11553:11589   */\n      sstore\n        /* \"#utility.yul\":10988:11599   */\n      pop\n      pop\n      pop\n        /* \"#utility.yul\":10951:11838   */\n    tag_217:\n      pop\n        /* \"#utility.yul\":10541:11844   */\n      pop\n      pop\n      pop\n        /* \"#utility.yul\":10449:11844   */\n      pop\n      pop\n      jump\t// out\n        /* \"#utility.yul\":11850:11998   */\n    tag_86:\n        /* \"#utility.yul\":11952:11963   */\n      0x00\n        /* \"#utility.yul\":11989:11992   */\n      dup2\n        /* \"#utility.yul\":11974:11992   */\n      swap1\n      pop\n        /* \"#utility.yul\":11850:11998   */\n      swap3\n      swap2\n      pop\n      pop\n      jump\t// out\n        /* \"#utility.yul\":12028:12345   */\n    tag_87:\n        /* \"#utility.yul\":12144:12147   */\n      0x00\n        /* \"#utility.yul\":12165:12254   */\n      tag_229\n        /* \"#utility.yul\":12247:12253   */\n      dup4\n        /* \"#utility.yul\":12242:12245   */\n      dup6\n        /* \"#utility.yul\":12165:12254   */\n      tag_86\n      jump\t// in\n    tag_229:\n        /* \"#utility.yul\":12158:12254   */\n      swap4\n      pop\n        /* \"#utility.yul\":12264:12307   */\n      tag_230\n        /* \"#utility.yul\":12300:12306   */\n      dup4\n        /* \"#utility.yul\":12295:12298   */\n      dup6\n        /* \"#utility.yul\":12288:12293   */\n      dup5\n        /* \"#utility.yul\":12264:12307   */\n      tag_63\n      jump\t// in\n    tag_230:\n        /* \"#utility.yul\":12332:12338   */\n      dup3\n        /* \"#utility.yul\":12327:12330   */\n      dup5\n        /* \"#utility.yul\":12323:12339   */\n      add\n        /* \"#utility.yul\":12316:12339   */\n      swap1\n      pop\n        /* \"#utility.yul\":12028:12345   */\n      swap4\n      swap3\n      pop\n      pop\n      pop\n      jump\t// out\n        /* \"#utility.yul\":12351:12646   */\n    tag_37:\n        /* \"#utility.yul\":12493:12496   */\n      0x00\n        /* \"#utility.yul\":12515:12620   */\n      tag_232\n        /* \"#utility.yul\":12616:12619   */\n      dup3\n        /* \"#utility.yul\":12607:12613   */\n      dup5\n        /* \"#utility.yul\":12599:12605   */\n      dup7\n        /* \"#utility.yul\":12515:12620   */\n      tag_87\n      jump\t// in\n    tag_232:\n        /* \"#utility.yul\":12508:12620   */\n      swap2\n      pop\n        /* \"#utility.yul\":12637:12640   */\n      dup2\n        /* \"#utility.yul\":12630:12640   */\n      swap1\n      pop\n        /* \"#utility.yul\":12351:12646   */\n      swap4\n      swap3\n      pop\n      pop\n      pop\n      jump\t// out\n\n    auxdata: 0xa2646970667358221220c5a9e7777e181189a37af23a9eeeb138fb81f009f53d89fefa2f2b5552800bbe64736f6c634300080f0033\n}\n",
				"bytecode": {
					"linkReferences": {},
					"object": "608060405234801561001057600080fd5b506109e5806100206000396000f3fe608060405234801561001057600080fd5b50600436106100575760003560e01c80632e64cec11461005c5780636057361d1461007a5780636f760f411461009657806374efae7b146100b25780639e7a13ad146100e2575b600080fd5b610064610113565b60405161007191906102f9565b60405180910390f35b610094600480360381019061008f9190610354565b61011c565b005b6100b060048036038101906100ab91906103e6565b610126565b005b6100cc60048036038101906100c79190610587565b6101f6565b6040516100d991906102f9565b60405180910390f35b6100fc60048036038101906100f79190610354565b610224565b60405161010a929190610658565b60405180910390f35b60008054905090565b8060008190555050565b6002604051806040016040528083815260200185858080601f016020809104026020016040519081016040528093929190818152602001838380828437600081840152601f19601f8201169050808301925050505050505081525090806001815401808255809150506001900390600052602060002090600202016000909190919091506000820151816000015560208201518160010190816101c99190610894565b50505080600184846040516101df929190610996565b908152602001604051809103902081905550505050565b6001818051602081018201805184825260208301602085012081835280955050505050506000915090505481565b6002818154811061023457600080fd5b906000526020600020906002020160009150905080600001549080600101805461025d906106b7565b80601f0160208091040260200160405190810160405280929190818152602001828054610289906106b7565b80156102d65780601f106102ab576101008083540402835291602001916102d6565b820191906000526020600020905b8154815290600101906020018083116102b957829003601f168201915b5050505050905082565b6000819050919050565b6102f3816102e0565b82525050565b600060208201905061030e60008301846102ea565b92915050565b6000604051905090565b600080fd5b600080fd5b610331816102e0565b811461033c57600080fd5b50565b60008135905061034e81610328565b92915050565b60006020828403121561036a5761036961031e565b5b60006103788482850161033f565b91505092915050565b600080fd5b600080fd5b600080fd5b60008083601f8401126103a6576103a5610381565b5b8235905067ffffffffffffffff8111156103c3576103c2610386565b5b6020830191508360018202830111156103df576103de61038b565b5b9250929050565b6000806000604084860312156103ff576103fe61031e565b5b600084013567ffffffffffffffff81111561041d5761041c610323565b5b61042986828701610390565b9350935050602061043c8682870161033f565b9150509250925092565b600080fd5b6000601f19601f8301169050919050565b7f4e487b7100000000000000000000000000000000000000000000000000000000600052604160045260246000fd5b6104948261044b565b810181811067ffffffffffffffff821117156104b3576104b261045c565b5b80604052505050565b60006104c6610314565b90506104d2828261048b565b919050565b600067ffffffffffffffff8211156104f2576104f161045c565b5b6104fb8261044b565b9050602081019050919050565b82818337600083830152505050565b600061052a610525846104d7565b6104bc565b90508281526020810184848401111561054657610545610446565b5b610551848285610508565b509392505050565b600082601f83011261056e5761056d610381565b5b813561057e848260208601610517565b91505092915050565b60006020828403121561059d5761059c61031e565b5b600082013567ffffffffffffffff8111156105bb576105ba610323565b5b6105c784828501610559565b91505092915050565b600081519050919050565b600082825260208201905092915050565b60005b8381101561060a5780820151818401526020810190506105ef565b83811115610619576000848401525b50505050565b600061062a826105d0565b61063481856105db565b93506106448185602086016105ec565b61064d8161044b565b840191505092915050565b600060408201905061066d60008301856102ea565b818103602083015261067f818461061f565b90509392505050565b7f4e487b7100000000000000000000000000000000000000000000000000000000600052602260045260246000fd5b600060028204905060018216806106cf57607f821691505b6020821081036106e2576106e1610688565b5b50919050565b60008190508160005260206000209050919050565b60006020601f8301049050919050565b600082821b905092915050565b60006008830261074a7fffffffffffffffffffffffffffffffffffffffffffffffffffffffffffffffff8261070d565b610754868361070d565b95508019841693508086168417925050509392505050565b6000819050919050565b600061079161078c610787846102e0565b61076c565b6102e0565b9050919050565b6000819050919050565b6107ab83610776565b6107bf6107b782610798565b84845461071a565b825550505050565b600090565b6107d46107c7565b6107df8184846107a2565b505050565b5b81811015610803576107f86000826107cc565b6001810190506107e5565b5050565b601f82111561084857610819816106e8565b610822846106fd565b81016020851015610831578190505b61084561083d856106fd565b8301826107e4565b50505b505050565b600082821c905092915050565b600061086b6000198460080261084d565b1980831691505092915050565b6000610884838361085a565b9150826002028217905092915050565b61089d826105d0565b67ffffffffffffffff8111156108b6576108b561045c565b5b6108c082546106b7565b6108cb828285610807565b600060209050601f8311600181146108fe57600084156108ec578287015190505b6108f68582610878565b86555061095e565b601f19841661090c866106e8565b60005b828110156109345784890151825560018201915060208501945060208101905061090f565b86831015610951578489015161094d601f89168261085a565b8355505b6001600288020188555050505b505050505050565b600081905092915050565b600061097d8385610966565b935061098a838584610508565b82840190509392505050565b60006109a3828486610971565b9150819050939250505056fea2646970667358221220c5a9e7777e181189a37af23a9eeeb138fb81f009f53d89fefa2f2b5552800bbe64736f6c634300080f0033",
					"opcodes": "PUSH1 0x80 PUSH1 0x40 MSTORE CALLVALUE DUP1 ISZERO PUSH2 0x10 JUMPI PUSH1 0x0 DUP1 REVERT JUMPDEST POP PUSH2 0x9E5 DUP1 PUSH2 0x20 PUSH1 0x0 CODECOPY PUSH1 0x0 RETURN INVALID PUSH1 0x80 PUSH1 0x40 MSTORE CALLVALUE DUP1 ISZERO PUSH2 0x10 JUMPI PUSH1 0x0 DUP1 REVERT JUMPDEST POP PUSH1 0x4 CALLDATASIZE LT PUSH2 0x57 JUMPI PUSH1 0x0 CALLDATALOAD PUSH1 0xE0 SHR DUP1 PUSH4 0x2E64CEC1 EQ PUSH2 0x5C JUMPI DUP1 PUSH4 0x6057361D EQ PUSH2 0x7A JUMPI DUP1 PUSH4 0x6F760F41 EQ PUSH2 0x96 JUMPI DUP1 PUSH4 0x74EFAE7B EQ PUSH2 0xB2 JUMPI DUP1 PUSH4 0x9E7A13AD EQ PUSH2 0xE2 JUMPI JUMPDEST PUSH1 0x0 DUP1 REVERT JUMPDEST PUSH2 0x64 PUSH2 0x113 JUMP JUMPDEST PUSH1 0x40 MLOAD PUSH2 0x71 SWAP2 SWAP1 PUSH2 0x2F9 JUMP JUMPDEST PUSH1 0x40 MLOAD DUP1 SWAP2 SUB SWAP1 RETURN JUMPDEST PUSH2 0x94 PUSH1 0x4 DUP1 CALLDATASIZE SUB DUP2 ADD SWAP1 PUSH2 0x8F SWAP2 SWAP1 PUSH2 0x354 JUMP JUMPDEST PUSH2 0x11C JUMP JUMPDEST STOP JUMPDEST PUSH2 0xB0 PUSH1 0x4 DUP1 CALLDATASIZE SUB DUP2 ADD SWAP1 PUSH2 0xAB SWAP2 SWAP1 PUSH2 0x3E6 JUMP JUMPDEST PUSH2 0x126 JUMP JUMPDEST STOP JUMPDEST PUSH2 0xCC PUSH1 0x4 DUP1 CALLDATASIZE SUB DUP2 ADD SWAP1 PUSH2 0xC7 SWAP2 SWAP1 PUSH2 0x587 JUMP JUMPDEST PUSH2 0x1F6 JUMP JUMPDEST PUSH1 0x40 MLOAD PUSH2 0xD9 SWAP2 SWAP1 PUSH2 0x2F9 JUMP JUMPDEST PUSH1 0x40 MLOAD DUP1 SWAP2 SUB SWAP1 RETURN JUMPDEST PUSH2 0xFC PUSH1 0x4 DUP1 CALLDATASIZE SUB DUP2 ADD SWAP1 PUSH2 0xF7 SWAP2 SWAP1 PUSH2 0x354 JUMP JUMPDEST PUSH2 0x224 JUMP JUMPDEST PUSH1 0x40 MLOAD PUSH2 0x10A SWAP3 SWAP2 SWAP1 PUSH2 0x658 JUMP JUMPDEST PUSH1 0x40 MLOAD DUP1 SWAP2 SUB SWAP1 RETURN JUMPDEST PUSH1 0x0 DUP1 SLOAD SWAP1 POP SWAP1 JUMP JUMPDEST DUP1 PUSH1 0x0 DUP2 SWAP1 SSTORE POP POP JUMP JUMPDEST PUSH1 0x2 PUSH1 0x40 MLOAD DUP1 PUSH1 0x40 ADD PUSH1 0x40 MSTORE DUP1 DUP4 DUP2 MSTORE PUSH1 0x20 ADD DUP6 DUP6 DUP1 DUP1 PUSH1 0x1F ADD PUSH1 0x20 DUP1 SWAP2 DIV MUL PUSH1 0x20 ADD PUSH1 0x40 MLOAD SWAP1 DUP2 ADD PUSH1 0x40 MSTORE DUP1 SWAP4 SWAP3 SWAP2 SWAP1 DUP2 DUP2 MSTORE PUSH1 0x20 ADD DUP4 DUP4 DUP1 DUP3 DUP5 CALLDATACOPY PUSH1 0x0 DUP2 DUP5 ADD MSTORE PUSH1 0x1F NOT PUSH1 0x1F DUP3 ADD AND SWAP1 POP DUP1 DUP4 ADD SWAP3 POP POP POP POP POP POP POP DUP2 MSTORE POP SWAP1 DUP1 PUSH1 0x1 DUP2 SLOAD ADD DUP1 DUP3 SSTORE DUP1 SWAP2 POP POP PUSH1 0x1 SWAP1 SUB SWAP1 PUSH1 0x0 MSTORE PUSH1 0x20 PUSH1 0x0 KECCAK256 SWAP1 PUSH1 0x2 MUL ADD PUSH1 0x0 SWAP1 SWAP2 SWAP1 SWAP2 SWAP1 SWAP2 POP PUSH1 0x0 DUP3 ADD MLOAD DUP2 PUSH1 0x0 ADD SSTORE PUSH1 0x20 DUP3 ADD MLOAD DUP2 PUSH1 0x1 ADD SWAP1 DUP2 PUSH2 0x1C9 SWAP2 SWAP1 PUSH2 0x894 JUMP JUMPDEST POP POP POP DUP1 PUSH1 0x1 DUP5 DUP5 PUSH1 0x40 MLOAD PUSH2 0x1DF SWAP3 SWAP2 SWAP1 PUSH2 0x996 JUMP JUMPDEST SWAP1 DUP2 MSTORE PUSH1 0x20 ADD PUSH1 0x40 MLOAD DUP1 SWAP2 SUB SWAP1 KECCAK256 DUP2 SWAP1 SSTORE POP POP POP POP JUMP JUMPDEST PUSH1 0x1 DUP2 DUP1 MLOAD PUSH1 0x20 DUP2 ADD DUP3 ADD DUP1 MLOAD DUP5 DUP3 MSTORE PUSH1 0x20 DUP4 ADD PUSH1 0x20 DUP6 ADD KECCAK256 DUP2 DUP4 MSTORE DUP1 SWAP6 POP POP POP POP POP POP PUSH1 0x0 SWAP2 POP SWAP1 POP SLOAD DUP2 JUMP JUMPDEST PUSH1 0x2 DUP2 DUP2 SLOAD DUP2 LT PUSH2 0x234 JUMPI PUSH1 0x0 DUP1 REVERT JUMPDEST SWAP1 PUSH1 0x0 MSTORE PUSH1 0x20 PUSH1 0x0 KECCAK256 SWAP1 PUSH1 0x2 MUL ADD PUSH1 0x0 SWAP2 POP SWAP1 POP DUP1 PUSH1 0x0 ADD SLOAD SWAP1 DUP1 PUSH1 0x1 ADD DUP1 SLOAD PUSH2 0x25D SWAP1 PUSH2 0x6B7 JUMP JUMPDEST DUP1 PUSH1 0x1F ADD PUSH1 0x20 DUP1 SWAP2 DIV MUL PUSH1 0x20 ADD PUSH1 0x40 MLOAD SWAP1 DUP2 ADD PUSH1 0x40 MSTORE DUP1 SWAP3 SWAP2 SWAP1 DUP2 DUP2 MSTORE PUSH1 0x20 ADD DUP3 DUP1 SLOAD PUSH2 0x289 SWAP1 PUSH2 0x6B7 JUMP JUMPDEST DUP1 ISZERO PUSH2 0x2D6 JUMPI DUP1 PUSH1 0x1F LT PUSH2 0x2AB JUMPI PUSH2 0x100 DUP1 DUP4 SLOAD DIV MUL DUP4 MSTORE SWAP2 PUSH1 0x20 ADD SWAP2 PUSH2 0x2D6 JUMP JUMPDEST DUP3 ADD SWAP2 SWAP1 PUSH1 0x0 MSTORE PUSH1 0x20 PUSH1 0x0 KECCAK256 SWAP1 JUMPDEST DUP2 SLOAD DUP2 MSTORE SWAP1 PUSH1 0x1 ADD SWAP1 PUSH1 0x20 ADD DUP1 DUP4 GT PUSH2 0x2B9 JUMPI DUP3 SWAP1 SUB PUSH1 0x1F AND DUP3 ADD SWAP2 JUMPDEST POP POP POP POP POP SWAP1 POP DUP3 JUMP JUMPDEST PUSH1 0x0 DUP2 SWAP1 POP SWAP2 SWAP1 POP JUMP JUMPDEST PUSH2 0x2F3 DUP2 PUSH2 0x2E0 JUMP JUMPDEST DUP3 MSTORE POP POP JUMP JUMPDEST PUSH1 0x0 PUSH1 0x20 DUP3 ADD SWAP1 POP PUSH2 0x30E PUSH1 0x0 DUP4 ADD DUP5 PUSH2 0x2EA JUMP JUMPDEST SWAP3 SWAP2 POP POP JUMP JUMPDEST PUSH1 0x0 PUSH1 0x40 MLOAD SWAP1 POP SWAP1 JUMP JUMPDEST PUSH1 0x0 DUP1 REVERT JUMPDEST PUSH1 0x0 DUP1 REVERT JUMPDEST PUSH2 0x331 DUP2 PUSH2 0x2E0 JUMP JUMPDEST DUP2 EQ PUSH2 0x33C JUMPI PUSH1 0x0 DUP1 REVERT JUMPDEST POP JUMP JUMPDEST PUSH1 0x0 DUP2 CALLDATALOAD SWAP1 POP PUSH2 0x34E DUP2 PUSH2 0x328 JUMP JUMPDEST SWAP3 SWAP2 POP POP JUMP JUMPDEST PUSH1 0x0 PUSH1 0x20 DUP3 DUP5 SUB SLT ISZERO PUSH2 0x36A JUMPI PUSH2 0x369 PUSH2 0x31E JUMP JUMPDEST JUMPDEST PUSH1 0x0 PUSH2 0x378 DUP5 DUP3 DUP6 ADD PUSH2 0x33F JUMP JUMPDEST SWAP2 POP POP SWAP3 SWAP2 POP POP JUMP JUMPDEST PUSH1 0x0 DUP1 REVERT JUMPDEST PUSH1 0x0 DUP1 REVERT JUMPDEST PUSH1 0x0 DUP1 REVERT JUMPDEST PUSH1 0x0 DUP1 DUP4 PUSH1 0x1F DUP5 ADD SLT PUSH2 0x3A6 JUMPI PUSH2 0x3A5 PUSH2 0x381 JUMP JUMPDEST JUMPDEST DUP3 CALLDATALOAD SWAP1 POP PUSH8 0xFFFFFFFFFFFFFFFF DUP2 GT ISZERO PUSH2 0x3C3 JUMPI PUSH2 0x3C2 PUSH2 0x386 JUMP JUMPDEST JUMPDEST PUSH1 0x20 DUP4 ADD SWAP2 POP DUP4 PUSH1 0x1 DUP3 MUL DUP4 ADD GT ISZERO PUSH2 0x3DF JUMPI PUSH2 0x3DE PUSH2 0x38B JUMP JUMPDEST JUMPDEST SWAP3 POP SWAP3 SWAP1 POP JUMP JUMPDEST PUSH1 0x0 DUP1 PUSH1 0x0 PUSH1 0x40 DUP5 DUP7 SUB SLT ISZERO PUSH2 0x3FF JUMPI PUSH2 0x3FE PUSH2 0x31E JUMP JUMPDEST JUMPDEST PUSH1 0x0 DUP5 ADD CALLDATALOAD PUSH8 0xFFFFFFFFFFFFFFFF DUP2 GT ISZERO PUSH2 0x41D JUMPI PUSH2 0x41C PUSH2 0x323 JUMP JUMPDEST JUMPDEST PUSH2 0x429 DUP7 DUP3 DUP8 ADD PUSH2 0x390 JUMP JUMPDEST SWAP4 POP SWAP4 POP POP PUSH1 0x20 PUSH2 0x43C DUP7 DUP3 DUP8 ADD PUSH2 0x33F JUMP JUMPDEST SWAP2 POP POP SWAP3 POP SWAP3 POP SWAP3 JUMP JUMPDEST PUSH1 0x0 DUP1 REVERT JUMPDEST PUSH1 0x0 PUSH1 0x1F NOT PUSH1 0x1F DUP4 ADD AND SWAP1 POP SWAP2 SWAP1 POP JUMP JUMPDEST PUSH32 0x4E487B7100000000000000000000000000000000000000000000000000000000 PUSH1 0x0 MSTORE PUSH1 0x41 PUSH1 0x4 MSTORE PUSH1 0x24 PUSH1 0x0 REVERT JUMPDEST PUSH2 0x494 DUP3 PUSH2 0x44B JUMP JUMPDEST DUP2 ADD DUP2 DUP2 LT PUSH8 0xFFFFFFFFFFFFFFFF DUP3 GT OR ISZERO PUSH2 0x4B3 JUMPI PUSH2 0x4B2 PUSH2 0x45C JUMP JUMPDEST JUMPDEST DUP1 PUSH1 0x40 MSTORE POP POP POP JUMP JUMPDEST PUSH1 0x0 PUSH2 0x4C6 PUSH2 0x314 JUMP JUMPDEST SWAP1 POP PUSH2 0x4D2 DUP3 DUP3 PUSH2 0x48B JUMP JUMPDEST SWAP2 SWAP1 POP JUMP JUMPDEST PUSH1 0x0 PUSH8 0xFFFFFFFFFFFFFFFF DUP3 GT ISZERO PUSH2 0x4F2 JUMPI PUSH2 0x4F1 PUSH2 0x45C JUMP JUMPDEST JUMPDEST PUSH2 0x4FB DUP3 PUSH2 0x44B JUMP JUMPDEST SWAP1 POP PUSH1 0x20 DUP2 ADD SWAP1 POP SWAP2 SWAP1 POP JUMP JUMPDEST DUP3 DUP2 DUP4 CALLDATACOPY PUSH1 0x0 DUP4 DUP4 ADD MSTORE POP POP POP JUMP JUMPDEST PUSH1 0x0 PUSH2 0x52A PUSH2 0x525 DUP5 PUSH2 0x4D7 JUMP JUMPDEST PUSH2 0x4BC JUMP JUMPDEST SWAP1 POP DUP3 DUP2 MSTORE PUSH1 0x20 DUP2 ADD DUP5 DUP5 DUP5 ADD GT ISZERO PUSH2 0x546 JUMPI PUSH2 0x545 PUSH2 0x446 JUMP JUMPDEST JUMPDEST PUSH2 0x551 DUP5 DUP3 DUP6 PUSH2 0x508 JUMP JUMPDEST POP SWAP4 SWAP3 POP POP POP JUMP JUMPDEST PUSH1 0x0 DUP3 PUSH1 0x1F DUP4 ADD SLT PUSH2 0x56E JUMPI PUSH2 0x56D PUSH2 0x381 JUMP JUMPDEST JUMPDEST DUP2 CALLDATALOAD PUSH2 0x57E DUP5 DUP3 PUSH1 0x20 DUP7 ADD PUSH2 0x517 JUMP JUMPDEST SWAP2 POP POP SWAP3 SWAP2 POP POP JUMP JUMPDEST PUSH1 0x0 PUSH1 0x20 DUP3 DUP5 SUB SLT ISZERO PUSH2 0x59D JUMPI PUSH2 0x59C PUSH2 0x31E JUMP JUMPDEST JUMPDEST PUSH1 0x0 DUP3 ADD CALLDATALOAD PUSH8 0xFFFFFFFFFFFFFFFF DUP2 GT ISZERO PUSH2 0x5BB JUMPI PUSH2 0x5BA PUSH2 0x323 JUMP JUMPDEST JUMPDEST PUSH2 0x5C7 DUP5 DUP3 DUP6 ADD PUSH2 0x559 JUMP JUMPDEST SWAP2 POP POP SWAP3 SWAP2 POP POP JUMP JUMPDEST PUSH1 0x0 DUP2 MLOAD SWAP1 POP SWAP2 SWAP1 POP JUMP JUMPDEST PUSH1 0x0 DUP3 DUP3 MSTORE PUSH1 0x20 DUP3 ADD SWAP1 POP SWAP3 SWAP2 POP POP JUMP JUMPDEST PUSH1 0x0 JUMPDEST DUP4 DUP2 LT ISZERO PUSH2 0x60A JUMPI DUP1 DUP3 ADD MLOAD DUP2 DUP5 ADD MSTORE PUSH1 0x20 DUP2 ADD SWAP1 POP PUSH2 0x5EF JUMP JUMPDEST DUP4 DUP2 GT ISZERO PUSH2 0x619 JUMPI PUSH1 0x0 DUP5 DUP5 ADD MSTORE JUMPDEST POP POP POP POP JUMP JUMPDEST PUSH1 0x0 PUSH2 0x62A DUP3 PUSH2 0x5D0 JUMP JUMPDEST PUSH2 0x634 DUP2 DUP6 PUSH2 0x5DB JUMP JUMPDEST SWAP4 POP PUSH2 0x644 DUP2 DUP6 PUSH1 0x20 DUP7 ADD PUSH2 0x5EC JUMP JUMPDEST PUSH2 0x64D DUP2 PUSH2 0x44B JUMP JUMPDEST DUP5 ADD SWAP2 POP POP SWAP3 SWAP2 POP POP JUMP JUMPDEST PUSH1 0x0 PUSH1 0x40 DUP3 ADD SWAP1 POP PUSH2 0x66D PUSH1 0x0 DUP4 ADD DUP6 PUSH2 0x2EA JUMP JUMPDEST DUP2 DUP2 SUB PUSH1 0x20 DUP4 ADD MSTORE PUSH2 0x67F DUP2 DUP5 PUSH2 0x61F JUMP JUMPDEST SWAP1 POP SWAP4 SWAP3 POP POP POP JUMP JUMPDEST PUSH32 0x4E487B7100000000000000000000000000000000000000000000000000000000 PUSH1 0x0 MSTORE PUSH1 0x22 PUSH1 0x4 MSTORE PUSH1 0x24 PUSH1 0x0 REVERT JUMPDEST PUSH1 0x0 PUSH1 0x2 DUP3 DIV SWAP1 POP PUSH1 0x1 DUP3 AND DUP1 PUSH2 0x6CF JUMPI PUSH1 0x7F DUP3 AND SWAP2 POP JUMPDEST PUSH1 0x20 DUP3 LT DUP2 SUB PUSH2 0x6E2 JUMPI PUSH2 0x6E1 PUSH2 0x688 JUMP JUMPDEST JUMPDEST POP SWAP2 SWAP1 POP JUMP JUMPDEST PUSH1 0x0 DUP2 SWAP1 POP DUP2 PUSH1 0x0 MSTORE PUSH1 0x20 PUSH1 0x0 KECCAK256 SWAP1 POP SWAP2 SWAP1 POP JUMP JUMPDEST PUSH1 0x0 PUSH1 0x20 PUSH1 0x1F DUP4 ADD DIV SWAP1 POP SWAP2 SWAP1 POP JUMP JUMPDEST PUSH1 0x0 DUP3 DUP3 SHL SWAP1 POP SWAP3 SWAP2 POP POP JUMP JUMPDEST PUSH1 0x0 PUSH1 0x8 DUP4 MUL PUSH2 0x74A PUSH32 0xFFFFFFFFFFFFFFFFFFFFFFFFFFFFFFFFFFFFFFFFFFFFFFFFFFFFFFFFFFFFFFFF DUP3 PUSH2 0x70D JUMP JUMPDEST PUSH2 0x754 DUP7 DUP4 PUSH2 0x70D JUMP JUMPDEST SWAP6 POP DUP1 NOT DUP5 AND SWAP4 POP DUP1 DUP7 AND DUP5 OR SWAP3 POP POP POP SWAP4 SWAP3 POP POP POP JUMP JUMPDEST PUSH1 0x0 DUP2 SWAP1 POP SWAP2 SWAP1 POP JUMP JUMPDEST PUSH1 0x0 PUSH2 0x791 PUSH2 0x78C PUSH2 0x787 DUP5 PUSH2 0x2E0 JUMP JUMPDEST PUSH2 0x76C JUMP JUMPDEST PUSH2 0x2E0 JUMP JUMPDEST SWAP1 POP SWAP2 SWAP1 POP JUMP JUMPDEST PUSH1 0x0 DUP2 SWAP1 POP SWAP2 SWAP1 POP JUMP JUMPDEST PUSH2 0x7AB DUP4 PUSH2 0x776 JUMP JUMPDEST PUSH2 0x7BF PUSH2 0x7B7 DUP3 PUSH2 0x798 JUMP JUMPDEST DUP5 DUP5 SLOAD PUSH2 0x71A JUMP JUMPDEST DUP3 SSTORE POP POP POP POP JUMP JUMPDEST PUSH1 0x0 SWAP1 JUMP JUMPDEST PUSH2 0x7D4 PUSH2 0x7C7 JUMP JUMPDEST PUSH2 0x7DF DUP2 DUP5 DUP5 PUSH2 0x7A2 JUMP JUMPDEST POP POP POP JUMP JUMPDEST JUMPDEST DUP2 DUP2 LT ISZERO PUSH2 0x803 JUMPI PUSH2 0x7F8 PUSH1 0x0 DUP3 PUSH2 0x7CC JUMP JUMPDEST PUSH1 0x1 DUP2 ADD SWAP1 POP PUSH2 0x7E5 JUMP JUMPDEST POP POP JUMP JUMPDEST PUSH1 0x1F DUP3 GT ISZERO PUSH2 0x848 JUMPI PUSH2 0x819 DUP2 PUSH2 0x6E8 JUMP JUMPDEST PUSH2 0x822 DUP5 PUSH2 0x6FD JUMP JUMPDEST DUP2 ADD PUSH1 0x20 DUP6 LT ISZERO PUSH2 0x831 JUMPI DUP2 SWAP1 POP JUMPDEST PUSH2 0x845 PUSH2 0x83D DUP6 PUSH2 0x6FD JUMP JUMPDEST DUP4 ADD DUP3 PUSH2 0x7E4 JUMP JUMPDEST POP POP JUMPDEST POP POP POP JUMP JUMPDEST PUSH1 0x0 DUP3 DUP3 SHR SWAP1 POP SWAP3 SWAP2 POP POP JUMP JUMPDEST PUSH1 0x0 PUSH2 0x86B PUSH1 0x0 NOT DUP5 PUSH1 0x8 MUL PUSH2 0x84D JUMP JUMPDEST NOT DUP1 DUP4 AND SWAP2 POP POP SWAP3 SWAP2 POP POP JUMP JUMPDEST PUSH1 0x0 PUSH2 0x884 DUP4 DUP4 PUSH2 0x85A JUMP JUMPDEST SWAP2 POP DUP3 PUSH1 0x2 MUL DUP3 OR SWAP1 POP SWAP3 SWAP2 POP POP JUMP JUMPDEST PUSH2 0x89D DUP3 PUSH2 0x5D0 JUMP JUMPDEST PUSH8 0xFFFFFFFFFFFFFFFF DUP2 GT ISZERO PUSH2 0x8B6 JUMPI PUSH2 0x8B5 PUSH2 0x45C JUMP JUMPDEST JUMPDEST PUSH2 0x8C0 DUP3 SLOAD PUSH2 0x6B7 JUMP JUMPDEST PUSH2 0x8CB DUP3 DUP3 DUP6 PUSH2 0x807 JUMP JUMPDEST PUSH1 0x0 PUSH1 0x20 SWAP1 POP PUSH1 0x1F DUP4 GT PUSH1 0x1 DUP2 EQ PUSH2 0x8FE JUMPI PUSH1 0x0 DUP5 ISZERO PUSH2 0x8EC JUMPI DUP3 DUP8 ADD MLOAD SWAP1 POP JUMPDEST PUSH2 0x8F6 DUP6 DUP3 PUSH2 0x878 JUMP JUMPDEST DUP7 SSTORE POP PUSH2 0x95E JUMP JUMPDEST PUSH1 0x1F NOT DUP5 AND PUSH2 0x90C DUP7 PUSH2 0x6E8 JUMP JUMPDEST PUSH1 0x0 JUMPDEST DUP3 DUP2 LT ISZERO PUSH2 0x934 JUMPI DUP5 DUP10 ADD MLOAD DUP3 SSTORE PUSH1 0x1 DUP3 ADD SWAP2 POP PUSH1 0x20 DUP6 ADD SWAP5 POP PUSH1 0x20 DUP2 ADD SWAP1 POP PUSH2 0x90F JUMP JUMPDEST DUP7 DUP4 LT ISZERO PUSH2 0x951 JUMPI DUP5 DUP10 ADD MLOAD PUSH2 0x94D PUSH1 0x1F DUP10 AND DUP3 PUSH2 0x85A JUMP JUMPDEST DUP4 SSTORE POP JUMPDEST PUSH1 0x1 PUSH1 0x2 DUP9 MUL ADD DUP9 SSTORE POP POP POP JUMPDEST POP POP POP POP POP POP JUMP JUMPDEST PUSH1 0x0 DUP2 SWAP1 POP SWAP3 SWAP2 POP POP JUMP JUMPDEST PUSH1 0x0 PUSH2 0x97D DUP4 DUP6 PUSH2 0x966 JUMP JUMPDEST SWAP4 POP PUSH2 0x98A DUP4 DUP6 DUP5 PUSH2 0x508 JUMP JUMPDEST DUP3 DUP5 ADD SWAP1 POP SWAP4 SWAP3 POP POP POP JUMP JUMPDEST PUSH1 0x0 PUSH2 0x9A3 DUP3 DUP5 DUP7 PUSH2 0x971 JUMP JUMPDEST SWAP2 POP DUP2 SWAP1 POP SWAP4 SWAP3 POP POP POP JUMP INVALID LOG2 PUSH5 0x6970667358 0x22 SLT KECCAK256 0xC5 0xA9 0xE7 PUSH24 0x7E181189A37AF23A9EEEB138FB81F009F53D89FEFA2F2B55 MSTORE DUP1 SIGNEXTEND 0xBE PUSH5 0x736F6C6343 STOP ADDMOD 0xF STOP CALLER "
				},
				"gasEstimates": {
					"creation": {
						"codeDepositCost": "506600",
						"executionCost": "543",
						"totalCost": "507143"
					},
					"external": {
						"addPerson(string,uint256)": "infinite",
						"nameToFoavoriteNumber(string)": "infinite",
						"people(uint256)": "infinite",
						"retrieve()": "2415",
						"store(uint256)": "22520"
					}
				},
				"methodIdentifiers": {
					"addPerson(string,uint256)": "6f760f41",
					"nameToFoavoriteNumber(string)": "74efae7b",
					"people(uint256)": "9e7a13ad",
					"retrieve()": "2e64cec1",
					"store(uint256)": "6057361d"
				}
			},
			"storageLayout": {
				"storage": [
					{
						"astId": 3,
						"contract": "SImpleStorage-4.sol:SimpleStorage",
						"label": "favoriteNumber",
						"offset": 0,
						"slot": "0",
						"type": "t_uint256"
					},
					{
						"astId": 7,
						"contract": "SImpleStorage-4.sol:SimpleStorage",
						"label": "nameToFoavoriteNumber",
						"offset": 0,
						"slot": "1",
						"type": "t_mapping(t_string_memory_ptr,t_uint256)"
					},
					{
						"astId": 16,
						"contract": "SImpleStorage-4.sol:SimpleStorage",
						"label": "people",
						"offset": 0,
						"slot": "2",
						"type": "t_array(t_struct(People)12_storage)dyn_storage"
					}
				],
				"types": {
					"t_array(t_struct(People)12_storage)dyn_storage": {
						"base": "t_struct(People)12_storage",
						"encoding": "dynamic_array",
						"label": "struct SimpleStorage.People[]",
						"numberOfBytes": "32"
					},
					"t_mapping(t_string_memory_ptr,t_uint256)": {
						"encoding": "mapping",
						"key": "t_string_memory_ptr",
						"label": "mapping(string => uint256)",
						"numberOfBytes": "32",
						"value": "t_uint256"
					},
					"t_string_memory_ptr": {
						"encoding": "bytes",
						"label": "string",
						"numberOfBytes": "32"
					},
					"t_string_storage": {
						"encoding": "bytes",
						"label": "string",
						"numberOfBytes": "32"
					},
					"t_struct(People)12_storage": {
						"encoding": "inplace",
						"label": "struct SimpleStorage.People",
						"members": [
							{
								"astId": 9,
								"contract": "SImpleStorage-4.sol:SimpleStorage",
								"label": "favoriteNumber",
								"offset": 0,
								"slot": "0",
								"type": "t_uint256"
							},
							{
								"astId": 11,
								"contract": "SImpleStorage-4.sol:SimpleStorage",
								"label": "name",
								"offset": 0,
								"slot": "1",
								"type": "t_string_storage"
							}
						],
						"numberOfBytes": "64"
					},
					"t_uint256": {
						"encoding": "inplace",
						"label": "uint256",
						"numberOfBytes": "32"
					}
				}
			},
			"userdoc": {
				"kind": "user",
				"methods": {},
				"version": 1
			}
		}
	}
}