{
	"SimpleStorage-3.sol": {
		"SimpleStorage": {
			"abi": [
				{
					"inputs": [
						{
							"internalType": "string",
							"name": "_name",
							"type": "string"
						},
						{
							"internalType": "uint256",
							"name": "_favoriteNumber",
							"type": "uint256"
						}
					],
					"name": "addPerson",
					"outputs": [],
					"stateMutability": "nonpayable",
					"type": "function"
				},
				{
					"inputs": [
						{
							"internalType": "uint256",
							"name": "",
							"type": "uint256"
						}
					],
					"name": "people",
					"outputs": [
						{
							"internalType": "uint256",
							"name": "favoriteNumber",
							"type": "uint256"
						},
						{
							"internalType": "string",
							"name": "name",
							"type": "string"
						}
					],
					"stateMutability": "view",
					"type": "function"
				},
				{
					"inputs": [],
					"name": "retrieve",
					"outputs": [
						{
							"internalType": "uint256",
							"name": "",
							"type": "uint256"
						}
					],
					"stateMutability": "view",
					"type": "function"
				},
				{
					"inputs": [
						{
							"internalType": "uint256",
							"name": "_fravoriteNumber",
							"type": "uint256"
						}
					],
					"name": "store",
					"outputs": [],
					"stateMutability": "nonpayable",
					"type": "function"
				}
			],
			"devdoc": {
				"kind": "dev",
				"methods": {},
				"version": 1
			},
			"evm": {
				"assembly": "    /* \"SimpleStorage-3.sol\":109:782  contract SimpleStorage {... */\n  mstore(0x40, 0x80)\n  callvalue\n  dup1\n  iszero\n  tag_1\n  jumpi\n  0x00\n  dup1\n  revert\ntag_1:\n  pop\n  dataSize(sub_0)\n  dup1\n  dataOffset(sub_0)\n  0x00\n  codecopy\n  0x00\n  return\nstop\n\nsub_0: assembly {\n        /* \"SimpleStorage-3.sol\":109:782  contract SimpleStorage {... */\n      mstore(0x40, 0x80)\n      callvalue\n      dup1\n      iszero\n      tag_1\n      jumpi\n      0x00\n      dup1\n      revert\n    tag_1:\n      pop\n      jumpi(tag_2, lt(calldatasize, 0x04))\n      shr(0xe0, calldataload(0x00))\n      dup1\n      0x2e64cec1\n      eq\n      tag_3\n      jumpi\n      dup1\n      0x6057361d\n      eq\n      tag_4\n      jumpi\n      dup1\n      0x6f760f41\n      eq\n      tag_5\n      jumpi\n      dup1\n      0x9e7a13ad\n      eq\n      tag_6\n      jumpi\n    tag_2:\n      0x00\n      dup1\n      revert\n        /* \"SimpleStorage-3.sol\":691:779  function retrieve() public view returns (uint256) {... */\n    tag_3:\n      tag_7\n      tag_8\n      jump\t// in\n    tag_7:\n      mload(0x40)\n      tag_9\n      swap2\n      swap1\n      tag_10\n      jump\t// in\n    tag_9:\n      mload(0x40)\n      dup1\n      swap2\n      sub\n      swap1\n      return\n        /* \"SimpleStorage-3.sol\":586:684  function store(uint256 _fravoriteNumber) public {... */\n    tag_4:\n      tag_11\n      0x04\n      dup1\n      calldatasize\n      sub\n      dup2\n      add\n      swap1\n      tag_12\n      swap2\n      swap1\n      tag_13\n      jump\t// in\n    tag_12:\n      tag_14\n      jump\t// in\n    tag_11:\n      stop\n        /* \"SimpleStorage-3.sol\":442:579  function addPerson(string calldata _name, uint256 _favoriteNumber) public {... */\n    tag_5:\n      tag_15\n      0x04\n      dup1\n      calldatasize\n      sub\n      dup2\n      add\n      swap1\n      tag_16\n      swap2\n      swap1\n      tag_17\n      jump\t// in\n    tag_16:\n      tag_18\n      jump\t// in\n    tag_15:\n      stop\n        /* \"SimpleStorage-3.sol\":248:270  People[] public people */\n    tag_6:\n      tag_19\n      0x04\n      dup1\n      calldatasize\n      sub\n      dup2\n      add\n      swap1\n      tag_20\n      swap2\n      swap1\n      tag_13\n      jump\t// in\n    tag_20:\n      tag_21\n      jump\t// in\n    tag_19:\n      mload(0x40)\n      tag_22\n      swap3\n      swap2\n      swap1\n      tag_23\n      jump\t// in\n    tag_22:\n      mload(0x40)\n      dup1\n      swap2\n      sub\n      swap1\n      return\n        /* \"SimpleStorage-3.sol\":691:779  function retrieve() public view returns (uint256) {... */\n    tag_8:\n        /* \"SimpleStorage-3.sol\":732:739  uint256 */\n      0x00\n        /* \"SimpleStorage-3.sol\":758:772  favoriteNumber */\n      dup1\n      sload\n        /* \"SimpleStorage-3.sol\":751:772  return favoriteNumber */\n      swap1\n      pop\n        /* \"SimpleStorage-3.sol\":691:779  function retrieve() public view returns (uint256) {... */\n      swap1\n      jump\t// out\n        /* \"SimpleStorage-3.sol\":586:684  function store(uint256 _fravoriteNumber) public {... */\n    tag_14:\n        /* \"SimpleStorage-3.sol\":661:677  _fravoriteNumber */\n      dup1\n        /* \"SimpleStorage-3.sol\":644:658  favoriteNumber */\n      0x00\n        /* \"SimpleStorage-3.sol\":644:677  favoriteNumber = _fravoriteNumber */\n      dup2\n      swap1\n      sstore\n      pop\n        /* \"SimpleStorage-3.sol\":586:684  function store(uint256 _fravoriteNumber) public {... */\n      pop\n      jump\t// out\n        /* \"SimpleStorage-3.sol\":442:579  function addPerson(string calldata _name, uint256 _favoriteNumber) public {... */\n    tag_18:\n        /* \"SimpleStorage-3.sol\":530:536  people */\n      0x01\n        /* \"SimpleStorage-3.sol\":542:571  People(_favoriteNumber,_name) */\n      mload(0x40)\n      dup1\n      0x40\n      add\n      0x40\n      mstore\n      dup1\n        /* \"SimpleStorage-3.sol\":549:564  _favoriteNumber */\n      dup4\n        /* \"SimpleStorage-3.sol\":542:571  People(_favoriteNumber,_name) */\n      dup2\n      mstore\n      0x20\n      add\n        /* \"SimpleStorage-3.sol\":565:570  _name */\n      dup6\n      dup6\n        /* \"SimpleStorage-3.sol\":542:571  People(_favoriteNumber,_name) */\n      dup1\n      dup1\n      0x1f\n      add\n      0x20\n      dup1\n      swap2\n      div\n      mul\n      0x20\n      add\n      mload(0x40)\n      swap1\n      dup2\n      add\n      0x40\n      mstore\n      dup1\n      swap4\n      swap3\n      swap2\n      swap1\n      dup2\n      dup2\n      mstore\n      0x20\n      add\n      dup4\n      dup4\n      dup1\n      dup3\n      dup5\n      calldatacopy\n      0x00\n      dup2\n      dup5\n      add\n      mstore\n      not(0x1f)\n      0x1f\n      dup3\n      add\n      and\n      swap1\n      pop\n      dup1\n      dup4\n      add\n      swap3\n      pop\n      pop\n      pop\n      pop\n      pop\n      pop\n      pop\n      dup2\n      mstore\n      pop\n        /* \"SimpleStorage-3.sol\":530:572  people.push(People(_favoriteNumber,_name)) */\n      swap1\n      dup1\n      0x01\n      dup2\n      sload\n      add\n      dup1\n      dup3\n      sstore\n      dup1\n      swap2\n      pop\n      pop\n      0x01\n      swap1\n      sub\n      swap1\n      0x00\n      mstore\n      keccak256(0x00, 0x20)\n      swap1\n      0x02\n      mul\n      add\n      0x00\n      swap1\n      swap2\n      swap1\n      swap2\n      swap1\n      swap2\n      pop\n      0x00\n      dup3\n      add\n      mload\n      dup2\n      0x00\n      add\n      sstore\n      0x20\n      dup3\n      add\n      mload\n      dup2\n      0x01\n      add\n      swap1\n      dup2\n      tag_28\n      swap2\n      swap1\n      tag_29\n      jump\t// in\n    tag_28:\n      pop\n      pop\n      pop\n        /* \"SimpleStorage-3.sol\":442:579  function addPerson(string calldata _name, uint256 _favoriteNumber) public {... */\n      pop\n      pop\n      pop\n      jump\t// out\n        /* \"SimpleStorage-3.sol\":248:270  People[] public people */\n    tag_21:\n      0x01\n      dup2\n      dup2\n      sload\n      dup2\n      lt\n      tag_30\n      jumpi\n      0x00\n      dup1\n      revert\n    tag_30:\n      swap1\n      0x00\n      mstore\n      keccak256(0x00, 0x20)\n      swap1\n      0x02\n      mul\n      add\n      0x00\n      swap2\n      pop\n      swap1\n      pop\n      dup1\n      0x00\n      add\n      sload\n      swap1\n      dup1\n      0x01\n      add\n      dup1\n      sload\n      tag_32\n      swap1\n      tag_33\n      jump\t// in\n    tag_32:\n      dup1\n      0x1f\n      add\n      0x20\n      dup1\n      swap2\n      div\n      mul\n      0x20\n      add\n      mload(0x40)\n      swap1\n      dup2\n      add\n      0x40\n      mstore\n      dup1\n      swap3\n      swap2\n      swap1\n      dup2\n      dup2\n      mstore\n      0x20\n      add\n      dup3\n      dup1\n      sload\n      tag_34\n      swap1\n      tag_33\n      jump\t// in\n    tag_34:\n      dup1\n      iszero\n      tag_35\n      jumpi\n      dup1\n      0x1f\n      lt\n      tag_36\n      jumpi\n      0x0100\n      dup1\n      dup4\n      sload\n      div\n      mul\n      dup4\n      mstore\n      swap2\n      0x20\n      add\n      swap2\n      jump(tag_35)\n    tag_36:\n      dup3\n      add\n      swap2\n      swap1\n      0x00\n      mstore\n      keccak256(0x00, 0x20)\n      swap1\n    tag_37:\n      dup2\n      sload\n      dup2\n      mstore\n      swap1\n      0x01\n      add\n      swap1\n      0x20\n      add\n      dup1\n      dup4\n      gt\n      tag_37\n      jumpi\n      dup3\n      swap1\n      sub\n      0x1f\n      and\n      dup3\n      add\n      swap2\n    tag_35:\n      pop\n      pop\n      pop\n      pop\n      pop\n      swap1\n      pop\n      dup3\n      jump\t// out\n        /* \"#utility.yul\":7:84   */\n    tag_38:\n        /* \"#utility.yul\":44:51   */\n      0x00\n        /* \"#utility.yul\":73:78   */\n      dup2\n        /* \"#utility.yul\":62:78   */\n      swap1\n      pop\n        /* \"#utility.yul\":7:84   */\n      swap2\n      swap1\n      pop\n      jump\t// out\n        /* \"#utility.yul\":90:208   */\n    tag_39:\n        /* \"#utility.yul\":177:201   */\n      tag_74\n        /* \"#utility.yul\":195:200   */\n      dup2\n        /* \"#utility.yul\":177:201   */\n      tag_38\n      jump\t// in\n    tag_74:\n        /* \"#utility.yul\":172:175   */\n      dup3\n        /* \"#utility.yul\":165:202   */\n      mstore\n        /* \"#utility.yul\":90:208   */\n      pop\n      pop\n      jump\t// out\n        /* \"#utility.yul\":214:436   */\n    tag_10:\n        /* \"#utility.yul\":307:311   */\n      0x00\n        /* \"#utility.yul\":345:347   */\n      0x20\n        /* \"#utility.yul\":334:343   */\n      dup3\n        /* \"#utility.yul\":330:348   */\n      add\n        /* \"#utility.yul\":322:348   */\n      swap1\n      pop\n        /* \"#utility.yul\":358:429   */\n      tag_76\n        /* \"#utility.yul\":426:427   */\n      0x00\n        /* \"#utility.yul\":415:424   */\n      dup4\n        /* \"#utility.yul\":411:428   */\n      add\n        /* \"#utility.yul\":402:408   */\n      dup5\n        /* \"#utility.yul\":358:429   */\n      tag_39\n      jump\t// in\n    tag_76:\n        /* \"#utility.yul\":214:436   */\n      swap3\n      swap2\n      pop\n      pop\n      jump\t// out\n        /* \"#utility.yul\":523:640   */\n    tag_41:\n        /* \"#utility.yul\":632:633   */\n      0x00\n        /* \"#utility.yul\":629:630   */\n      dup1\n        /* \"#utility.yul\":622:634   */\n      revert\n        /* \"#utility.yul\":646:763   */\n    tag_42:\n        /* \"#utility.yul\":755:756   */\n      0x00\n        /* \"#utility.yul\":752:753   */\n      dup1\n        /* \"#utility.yul\":745:757   */\n      revert\n        /* \"#utility.yul\":769:891   */\n    tag_43:\n        /* \"#utility.yul\":842:866   */\n      tag_81\n        /* \"#utility.yul\":860:865   */\n      dup2\n        /* \"#utility.yul\":842:866   */\n      tag_38\n      jump\t// in\n    tag_81:\n        /* \"#utility.yul\":835:840   */\n      dup2\n        /* \"#utility.yul\":832:867   */\n      eq\n        /* \"#utility.yul\":822:885   */\n      tag_82\n      jumpi\n        /* \"#utility.yul\":881:882   */\n      0x00\n        /* \"#utility.yul\":878:879   */\n      dup1\n        /* \"#utility.yul\":871:883   */\n      revert\n        /* \"#utility.yul\":822:885   */\n    tag_82:\n        /* \"#utility.yul\":769:891   */\n      pop\n      jump\t// out\n        /* \"#utility.yul\":897:1036   */\n    tag_44:\n        /* \"#utility.yul\":943:948   */\n      0x00\n        /* \"#utility.yul\":981:987   */\n      dup2\n        /* \"#utility.yul\":968:988   */\n      calldataload\n        /* \"#utility.yul\":959:988   */\n      swap1\n      pop\n        /* \"#utility.yul\":997:1030   */\n      tag_84\n        /* \"#utility.yul\":1024:1029   */\n      dup2\n        /* \"#utility.yul\":997:1030   */\n      tag_43\n      jump\t// in\n    tag_84:\n        /* \"#utility.yul\":897:1036   */\n      swap3\n      swap2\n      pop\n      pop\n      jump\t// out\n        /* \"#utility.yul\":1042:1371   */\n    tag_13:\n        /* \"#utility.yul\":1101:1107   */\n      0x00\n        /* \"#utility.yul\":1150:1152   */\n      0x20\n        /* \"#utility.yul\":1138:1147   */\n      dup3\n        /* \"#utility.yul\":1129:1136   */\n      dup5\n        /* \"#utility.yul\":1125:1148   */\n      sub\n        /* \"#utility.yul\":1121:1153   */\n      slt\n        /* \"#utility.yul\":1118:1237   */\n      iszero\n      tag_86\n      jumpi\n        /* \"#utility.yul\":1156:1235   */\n      tag_87\n      tag_41\n      jump\t// in\n    tag_87:\n        /* \"#utility.yul\":1118:1237   */\n    tag_86:\n        /* \"#utility.yul\":1276:1277   */\n      0x00\n        /* \"#utility.yul\":1301:1354   */\n      tag_88\n        /* \"#utility.yul\":1346:1353   */\n      dup5\n        /* \"#utility.yul\":1337:1343   */\n      dup3\n        /* \"#utility.yul\":1326:1335   */\n      dup6\n        /* \"#utility.yul\":1322:1344   */\n      add\n        /* \"#utility.yul\":1301:1354   */\n      tag_44\n      jump\t// in\n    tag_88:\n        /* \"#utility.yul\":1291:1354   */\n      swap2\n      pop\n        /* \"#utility.yul\":1247:1364   */\n      pop\n        /* \"#utility.yul\":1042:1371   */\n      swap3\n      swap2\n      pop\n      pop\n      jump\t// out\n        /* \"#utility.yul\":1377:1494   */\n    tag_45:\n        /* \"#utility.yul\":1486:1487   */\n      0x00\n        /* \"#utility.yul\":1483:1484   */\n      dup1\n        /* \"#utility.yul\":1476:1488   */\n      revert\n        /* \"#utility.yul\":1500:1617   */\n    tag_46:\n        /* \"#utility.yul\":1609:1610   */\n      0x00\n        /* \"#utility.yul\":1606:1607   */\n      dup1\n        /* \"#utility.yul\":1599:1611   */\n      revert\n        /* \"#utility.yul\":1623:1740   */\n    tag_47:\n        /* \"#utility.yul\":1732:1733   */\n      0x00\n        /* \"#utility.yul\":1729:1730   */\n      dup1\n        /* \"#utility.yul\":1722:1734   */\n      revert\n        /* \"#utility.yul\":1760:2313   */\n    tag_48:\n        /* \"#utility.yul\":1818:1826   */\n      0x00\n        /* \"#utility.yul\":1828:1834   */\n      dup1\n        /* \"#utility.yul\":1878:1881   */\n      dup4\n        /* \"#utility.yul\":1871:1875   */\n      0x1f\n        /* \"#utility.yul\":1863:1869   */\n      dup5\n        /* \"#utility.yul\":1859:1876   */\n      add\n        /* \"#utility.yul\":1855:1882   */\n      slt\n        /* \"#utility.yul\":1845:1967   */\n      tag_93\n      jumpi\n        /* \"#utility.yul\":1886:1965   */\n      tag_94\n      tag_45\n      jump\t// in\n    tag_94:\n        /* \"#utility.yul\":1845:1967   */\n    tag_93:\n        /* \"#utility.yul\":1999:2005   */\n      dup3\n        /* \"#utility.yul\":1986:2006   */\n      calldataload\n        /* \"#utility.yul\":1976:2006   */\n      swap1\n      pop\n        /* \"#utility.yul\":2029:2047   */\n      0xffffffffffffffff\n        /* \"#utility.yul\":2021:2027   */\n      dup2\n        /* \"#utility.yul\":2018:2048   */\n      gt\n        /* \"#utility.yul\":2015:2132   */\n      iszero\n      tag_95\n      jumpi\n        /* \"#utility.yul\":2051:2130   */\n      tag_96\n      tag_46\n      jump\t// in\n    tag_96:\n        /* \"#utility.yul\":2015:2132   */\n    tag_95:\n        /* \"#utility.yul\":2165:2169   */\n      0x20\n        /* \"#utility.yul\":2157:2163   */\n      dup4\n        /* \"#utility.yul\":2153:2170   */\n      add\n        /* \"#utility.yul\":2141:2170   */\n      swap2\n      pop\n        /* \"#utility.yul\":2219:2222   */\n      dup4\n        /* \"#utility.yul\":2211:2215   */\n      0x01\n        /* \"#utility.yul\":2203:2209   */\n      dup3\n        /* \"#utility.yul\":2199:2216   */\n      mul\n        /* \"#utility.yul\":2189:2197   */\n      dup4\n        /* \"#utility.yul\":2185:2217   */\n      add\n        /* \"#utility.yul\":2182:2223   */\n      gt\n        /* \"#utility.yul\":2179:2307   */\n      iszero\n      tag_97\n      jumpi\n        /* \"#utility.yul\":2226:2305   */\n      tag_98\n      tag_47\n      jump\t// in\n    tag_98:\n        /* \"#utility.yul\":2179:2307   */\n    tag_97:\n        /* \"#utility.yul\":1760:2313   */\n      swap3\n      pop\n      swap3\n      swap1\n      pop\n      jump\t// out\n        /* \"#utility.yul\":2319:2993   */\n    tag_17:\n        /* \"#utility.yul\":2399:2405   */\n      0x00\n        /* \"#utility.yul\":2407:2413   */\n      dup1\n        /* \"#utility.yul\":2415:2421   */\n      0x00\n        /* \"#utility.yul\":2464:2466   */\n      0x40\n        /* \"#utility.yul\":2452:2461   */\n      dup5\n        /* \"#utility.yul\":2443:2450   */\n      dup7\n        /* \"#utility.yul\":2439:2462   */\n      sub\n        /* \"#utility.yul\":2435:2467   */\n      slt\n        /* \"#utility.yul\":2432:2551   */\n      iszero\n      tag_100\n      jumpi\n        /* \"#utility.yul\":2470:2549   */\n      tag_101\n      tag_41\n      jump\t// in\n    tag_101:\n        /* \"#utility.yul\":2432:2551   */\n    tag_100:\n        /* \"#utility.yul\":2618:2619   */\n      0x00\n        /* \"#utility.yul\":2607:2616   */\n      dup5\n        /* \"#utility.yul\":2603:2620   */\n      add\n        /* \"#utility.yul\":2590:2621   */\n      calldataload\n        /* \"#utility.yul\":2648:2666   */\n      0xffffffffffffffff\n        /* \"#utility.yul\":2640:2646   */\n      dup2\n        /* \"#utility.yul\":2637:2667   */\n      gt\n        /* \"#utility.yul\":2634:2751   */\n      iszero\n      tag_102\n      jumpi\n        /* \"#utility.yul\":2670:2749   */\n      tag_103\n      tag_42\n      jump\t// in\n    tag_103:\n        /* \"#utility.yul\":2634:2751   */\n    tag_102:\n        /* \"#utility.yul\":2783:2848   */\n      tag_104\n        /* \"#utility.yul\":2840:2847   */\n      dup7\n        /* \"#utility.yul\":2831:2837   */\n      dup3\n        /* \"#utility.yul\":2820:2829   */\n      dup8\n        /* \"#utility.yul\":2816:2838   */\n      add\n        /* \"#utility.yul\":2783:2848   */\n      tag_48\n      jump\t// in\n    tag_104:\n        /* \"#utility.yul\":2765:2848   */\n      swap4\n      pop\n      swap4\n      pop\n        /* \"#utility.yul\":2561:2858   */\n      pop\n        /* \"#utility.yul\":2897:2899   */\n      0x20\n        /* \"#utility.yul\":2923:2976   */\n      tag_105\n        /* \"#utility.yul\":2968:2975   */\n      dup7\n        /* \"#utility.yul\":2959:2965   */\n      dup3\n        /* \"#utility.yul\":2948:2957   */\n      dup8\n        /* \"#utility.yul\":2944:2966   */\n      add\n        /* \"#utility.yul\":2923:2976   */\n      tag_44\n      jump\t// in\n    tag_105:\n        /* \"#utility.yul\":2913:2976   */\n      swap2\n      pop\n        /* \"#utility.yul\":2868:2986   */\n      pop\n        /* \"#utility.yul\":2319:2993   */\n      swap3\n      pop\n      swap3\n      pop\n      swap3\n      jump\t// out\n        /* \"#utility.yul\":2999:3098   */\n    tag_49:\n        /* \"#utility.yul\":3051:3057   */\n      0x00\n        /* \"#utility.yul\":3085:3090   */\n      dup2\n        /* \"#utility.yul\":3079:3091   */\n      mload\n        /* \"#utility.yul\":3069:3091   */\n      swap1\n      pop\n        /* \"#utility.yul\":2999:3098   */\n      swap2\n      swap1\n      pop\n      jump\t// out\n        /* \"#utility.yul\":3104:3273   */\n    tag_50:\n        /* \"#utility.yul\":3188:3199   */\n      0x00\n        /* \"#utility.yul\":3222:3228   */\n      dup3\n        /* \"#utility.yul\":3217:3220   */\n      dup3\n        /* \"#utility.yul\":3210:3229   */\n      mstore\n        /* \"#utility.yul\":3262:3266   */\n      0x20\n        /* \"#utility.yul\":3257:3260   */\n      dup3\n        /* \"#utility.yul\":3253:3267   */\n      add\n        /* \"#utility.yul\":3238:3267   */\n      swap1\n      pop\n        /* \"#utility.yul\":3104:3273   */\n      swap3\n      swap2\n      pop\n      pop\n      jump\t// out\n        /* \"#utility.yul\":3279:3586   */\n    tag_51:\n        /* \"#utility.yul\":3347:3348   */\n      0x00\n        /* \"#utility.yul\":3357:3470   */\n    tag_109:\n        /* \"#utility.yul\":3371:3377   */\n      dup4\n        /* \"#utility.yul\":3368:3369   */\n      dup2\n        /* \"#utility.yul\":3365:3378   */\n      lt\n        /* \"#utility.yul\":3357:3470   */\n      iszero\n      tag_111\n      jumpi\n        /* \"#utility.yul\":3456:3457   */\n      dup1\n        /* \"#utility.yul\":3451:3454   */\n      dup3\n        /* \"#utility.yul\":3447:3458   */\n      add\n        /* \"#utility.yul\":3441:3459   */\n      mload\n        /* \"#utility.yul\":3437:3438   */\n      dup2\n        /* \"#utility.yul\":3432:3435   */\n      dup5\n        /* \"#utility.yul\":3428:3439   */\n      add\n        /* \"#utility.yul\":3421:3460   */\n      mstore\n        /* \"#utility.yul\":3393:3395   */\n      0x20\n        /* \"#utility.yul\":3390:3391   */\n      dup2\n        /* \"#utility.yul\":3386:3396   */\n      add\n        /* \"#utility.yul\":3381:3396   */\n      swap1\n      pop\n        /* \"#utility.yul\":3357:3470   */\n      jump(tag_109)\n    tag_111:\n        /* \"#utility.yul\":3488:3494   */\n      dup4\n        /* \"#utility.yul\":3485:3486   */\n      dup2\n        /* \"#utility.yul\":3482:3495   */\n      gt\n        /* \"#utility.yul\":3479:3580   */\n      iszero\n      tag_112\n      jumpi\n        /* \"#utility.yul\":3568:3569   */\n      0x00\n        /* \"#utility.yul\":3559:3565   */\n      dup5\n        /* \"#utility.yul\":3554:3557   */\n      dup5\n        /* \"#utility.yul\":3550:3566   */\n      add\n        /* \"#utility.yul\":3543:3570   */\n      mstore\n        /* \"#utility.yul\":3479:3580   */\n    tag_112:\n        /* \"#utility.yul\":3328:3586   */\n      pop\n        /* \"#utility.yul\":3279:3586   */\n      pop\n      pop\n      pop\n      jump\t// out\n        /* \"#utility.yul\":3592:3694   */\n    tag_52:\n        /* \"#utility.yul\":3633:3639   */\n      0x00\n        /* \"#utility.yul\":3684:3686   */\n      0x1f\n        /* \"#utility.yul\":3680:3687   */\n      not\n        /* \"#utility.yul\":3675:3677   */\n      0x1f\n        /* \"#utility.yul\":3668:3673   */\n      dup4\n        /* \"#utility.yul\":3664:3678   */\n      add\n        /* \"#utility.yul\":3660:3688   */\n      and\n        /* \"#utility.yul\":3650:3688   */\n      swap1\n      pop\n        /* \"#utility.yul\":3592:3694   */\n      swap2\n      swap1\n      pop\n      jump\t// out\n        /* \"#utility.yul\":3700:4064   */\n    tag_53:\n        /* \"#utility.yul\":3788:3791   */\n      0x00\n        /* \"#utility.yul\":3816:3855   */\n      tag_115\n        /* \"#utility.yul\":3849:3854   */\n      dup3\n        /* \"#utility.yul\":3816:3855   */\n      tag_49\n      jump\t// in\n    tag_115:\n        /* \"#utility.yul\":3871:3942   */\n      tag_116\n        /* \"#utility.yul\":3935:3941   */\n      dup2\n        /* \"#utility.yul\":3930:3933   */\n      dup6\n        /* \"#utility.yul\":3871:3942   */\n      tag_50\n      jump\t// in\n    tag_116:\n        /* \"#utility.yul\":3864:3942   */\n      swap4\n      pop\n        /* \"#utility.yul\":3951:4003   */\n      tag_117\n        /* \"#utility.yul\":3996:4002   */\n      dup2\n        /* \"#utility.yul\":3991:3994   */\n      dup6\n        /* \"#utility.yul\":3984:3988   */\n      0x20\n        /* \"#utility.yul\":3977:3982   */\n      dup7\n        /* \"#utility.yul\":3973:3989   */\n      add\n        /* \"#utility.yul\":3951:4003   */\n      tag_51\n      jump\t// in\n    tag_117:\n        /* \"#utility.yul\":4028:4057   */\n      tag_118\n        /* \"#utility.yul\":4050:4056   */\n      dup2\n        /* \"#utility.yul\":4028:4057   */\n      tag_52\n      jump\t// in\n    tag_118:\n        /* \"#utility.yul\":4023:4026   */\n      dup5\n        /* \"#utility.yul\":4019:4058   */\n      add\n        /* \"#utility.yul\":4012:4058   */\n      swap2\n      pop\n        /* \"#utility.yul\":3792:4064   */\n      pop\n        /* \"#utility.yul\":3700:4064   */\n      swap3\n      swap2\n      pop\n      pop\n      jump\t// out\n        /* \"#utility.yul\":4070:4493   */\n    tag_23:\n        /* \"#utility.yul\":4211:4215   */\n      0x00\n        /* \"#utility.yul\":4249:4251   */\n      0x40\n        /* \"#utility.yul\":4238:4247   */\n      dup3\n        /* \"#utility.yul\":4234:4252   */\n      add\n        /* \"#utility.yul\":4226:4252   */\n      swap1\n      pop\n        /* \"#utility.yul\":4262:4333   */\n      tag_120\n        /* \"#utility.yul\":4330:4331   */\n      0x00\n        /* \"#utility.yul\":4319:4328   */\n      dup4\n        /* \"#utility.yul\":4315:4332   */\n      add\n        /* \"#utility.yul\":4306:4312   */\n      dup6\n        /* \"#utility.yul\":4262:4333   */\n      tag_39\n      jump\t// in\n    tag_120:\n        /* \"#utility.yul\":4380:4389   */\n      dup2\n        /* \"#utility.yul\":4374:4378   */\n      dup2\n        /* \"#utility.yul\":4370:4390   */\n      sub\n        /* \"#utility.yul\":4365:4367   */\n      0x20\n        /* \"#utility.yul\":4354:4363   */\n      dup4\n        /* \"#utility.yul\":4350:4368   */\n      add\n        /* \"#utility.yul\":4343:4391   */\n      mstore\n        /* \"#utility.yul\":4408:4486   */\n      tag_121\n        /* \"#utility.yul\":4481:4485   */\n      dup2\n        /* \"#utility.yul\":4472:4478   */\n      dup5\n        /* \"#utility.yul\":4408:4486   */\n      tag_53\n      jump\t// in\n    tag_121:\n        /* \"#utility.yul\":4400:4486   */\n      swap1\n      pop\n        /* \"#utility.yul\":4070:4493   */\n      swap4\n      swap3\n      pop\n      pop\n      pop\n      jump\t// out\n        /* \"#utility.yul\":4499:4679   */\n    tag_54:\n        /* \"#utility.yul\":4547:4624   */\n      0x4e487b7100000000000000000000000000000000000000000000000000000000\n        /* \"#utility.yul\":4544:4545   */\n      0x00\n        /* \"#utility.yul\":4537:4625   */\n      mstore\n        /* \"#utility.yul\":4644:4648   */\n      0x41\n        /* \"#utility.yul\":4641:4642   */\n      0x04\n        /* \"#utility.yul\":4634:4649   */\n      mstore\n        /* \"#utility.yul\":4668:4672   */\n      0x24\n        /* \"#utility.yul\":4665:4666   */\n      0x00\n        /* \"#utility.yul\":4658:4673   */\n      revert\n        /* \"#utility.yul\":4685:4865   */\n    tag_55:\n        /* \"#utility.yul\":4733:4810   */\n      0x4e487b7100000000000000000000000000000000000000000000000000000000\n        /* \"#utility.yul\":4730:4731   */\n      0x00\n        /* \"#utility.yul\":4723:4811   */\n      mstore\n        /* \"#utility.yul\":4830:4834   */\n      0x22\n        /* \"#utility.yul\":4827:4828   */\n      0x04\n        /* \"#utility.yul\":4820:4835   */\n      mstore\n        /* \"#utility.yul\":4854:4858   */\n      0x24\n        /* \"#utility.yul\":4851:4852   */\n      0x00\n        /* \"#utility.yul\":4844:4859   */\n      revert\n        /* \"#utility.yul\":4871:5191   */\n    tag_33:\n        /* \"#utility.yul\":4915:4921   */\n      0x00\n        /* \"#utility.yul\":4952:4953   */\n      0x02\n        /* \"#utility.yul\":4946:4950   */\n      dup3\n        /* \"#utility.yul\":4942:4954   */\n      div\n        /* \"#utility.yul\":4932:4954   */\n      swap1\n      pop\n        /* \"#utility.yul\":4999:5000   */\n      0x01\n        /* \"#utility.yul\":4993:4997   */\n      dup3\n        /* \"#utility.yul\":4989:5001   */\n      and\n        /* \"#utility.yul\":5020:5038   */\n      dup1\n        /* \"#utility.yul\":5010:5091   */\n      tag_125\n      jumpi\n        /* \"#utility.yul\":5076:5080   */\n      0x7f\n        /* \"#utility.yul\":5068:5074   */\n      dup3\n        /* \"#utility.yul\":5064:5081   */\n      and\n        /* \"#utility.yul\":5054:5081   */\n      swap2\n      pop\n        /* \"#utility.yul\":5010:5091   */\n    tag_125:\n        /* \"#utility.yul\":5138:5140   */\n      0x20\n        /* \"#utility.yul\":5130:5136   */\n      dup3\n        /* \"#utility.yul\":5127:5141   */\n      lt\n        /* \"#utility.yul\":5107:5125   */\n      dup2\n        /* \"#utility.yul\":5104:5142   */\n      sub\n        /* \"#utility.yul\":5101:5185   */\n      tag_126\n      jumpi\n        /* \"#utility.yul\":5157:5175   */\n      tag_127\n      tag_55\n      jump\t// in\n    tag_127:\n        /* \"#utility.yul\":5101:5185   */\n    tag_126:\n        /* \"#utility.yul\":4922:5191   */\n      pop\n        /* \"#utility.yul\":4871:5191   */\n      swap2\n      swap1\n      pop\n      jump\t// out\n        /* \"#utility.yul\":5197:5338   */\n    tag_56:\n        /* \"#utility.yul\":5246:5250   */\n      0x00\n        /* \"#utility.yul\":5269:5272   */\n      dup2\n        /* \"#utility.yul\":5261:5272   */\n      swap1\n      pop\n        /* \"#utility.yul\":5292:5295   */\n      dup2\n        /* \"#utility.yul\":5289:5290   */\n      0x00\n        /* \"#utility.yul\":5282:5296   */\n      mstore\n        /* \"#utility.yul\":5326:5330   */\n      0x20\n        /* \"#utility.yul\":5323:5324   */\n      0x00\n        /* \"#utility.yul\":5313:5331   */\n      keccak256\n        /* \"#utility.yul\":5305:5331   */\n      swap1\n      pop\n        /* \"#utility.yul\":5197:5338   */\n      swap2\n      swap1\n      pop\n      jump\t// out\n        /* \"#utility.yul\":5344:5437   */\n    tag_57:\n        /* \"#utility.yul\":5381:5387   */\n      0x00\n        /* \"#utility.yul\":5428:5430   */\n      0x20\n        /* \"#utility.yul\":5423:5425   */\n      0x1f\n        /* \"#utility.yul\":5416:5421   */\n      dup4\n        /* \"#utility.yul\":5412:5426   */\n      add\n        /* \"#utility.yul\":5408:5431   */\n      div\n        /* \"#utility.yul\":5398:5431   */\n      swap1\n      pop\n        /* \"#utility.yul\":5344:5437   */\n      swap2\n      swap1\n      pop\n      jump\t// out\n        /* \"#utility.yul\":5443:5550   */\n    tag_58:\n        /* \"#utility.yul\":5487:5495   */\n      0x00\n        /* \"#utility.yul\":5537:5542   */\n      dup3\n        /* \"#utility.yul\":5531:5535   */\n      dup3\n        /* \"#utility.yul\":5527:5543   */\n      shl\n        /* \"#utility.yul\":5506:5543   */\n      swap1\n      pop\n        /* \"#utility.yul\":5443:5550   */\n      swap3\n      swap2\n      pop\n      pop\n      jump\t// out\n        /* \"#utility.yul\":5556:5949   */\n    tag_59:\n        /* \"#utility.yul\":5625:5631   */\n      0x00\n        /* \"#utility.yul\":5675:5676   */\n      0x08\n        /* \"#utility.yul\":5663:5673   */\n      dup4\n        /* \"#utility.yul\":5659:5677   */\n      mul\n        /* \"#utility.yul\":5698:5795   */\n      tag_132\n        /* \"#utility.yul\":5728:5794   */\n      0xffffffffffffffffffffffffffffffffffffffffffffffffffffffffffffffff\n        /* \"#utility.yul\":5717:5726   */\n      dup3\n        /* \"#utility.yul\":5698:5795   */\n      tag_58\n      jump\t// in\n    tag_132:\n        /* \"#utility.yul\":5816:5855   */\n      tag_133\n        /* \"#utility.yul\":5846:5854   */\n      dup7\n        /* \"#utility.yul\":5835:5844   */\n      dup4\n        /* \"#utility.yul\":5816:5855   */\n      tag_58\n      jump\t// in\n    tag_133:\n        /* \"#utility.yul\":5804:5855   */\n      swap6\n      pop\n        /* \"#utility.yul\":5888:5892   */\n      dup1\n        /* \"#utility.yul\":5884:5893   */\n      not\n        /* \"#utility.yul\":5877:5882   */\n      dup5\n        /* \"#utility.yul\":5873:5894   */\n      and\n        /* \"#utility.yul\":5864:5894   */\n      swap4\n      pop\n        /* \"#utility.yul\":5937:5941   */\n      dup1\n        /* \"#utility.yul\":5927:5935   */\n      dup7\n        /* \"#utility.yul\":5923:5942   */\n      and\n        /* \"#utility.yul\":5916:5921   */\n      dup5\n        /* \"#utility.yul\":5913:5943   */\n      or\n        /* \"#utility.yul\":5903:5943   */\n      swap3\n      pop\n        /* \"#utility.yul\":5632:5949   */\n      pop\n      pop\n        /* \"#utility.yul\":5556:5949   */\n      swap4\n      swap3\n      pop\n      pop\n      pop\n      jump\t// out\n        /* \"#utility.yul\":5955:6015   */\n    tag_60:\n        /* \"#utility.yul\":5983:5986   */\n      0x00\n        /* \"#utility.yul\":6004:6009   */\n      dup2\n        /* \"#utility.yul\":5997:6009   */\n      swap1\n      pop\n        /* \"#utility.yul\":5955:6015   */\n      swap2\n      swap1\n      pop\n      jump\t// out\n        /* \"#utility.yul\":6021:6163   */\n    tag_61:\n        /* \"#utility.yul\":6071:6080   */\n      0x00\n        /* \"#utility.yul\":6104:6157   */\n      tag_136\n        /* \"#utility.yul\":6122:6156   */\n      tag_137\n        /* \"#utility.yul\":6131:6155   */\n      tag_138\n        /* \"#utility.yul\":6149:6154   */\n      dup5\n        /* \"#utility.yul\":6131:6155   */\n      tag_38\n      jump\t// in\n    tag_138:\n        /* \"#utility.yul\":6122:6156   */\n      tag_60\n      jump\t// in\n    tag_137:\n        /* \"#utility.yul\":6104:6157   */\n      tag_38\n      jump\t// in\n    tag_136:\n        /* \"#utility.yul\":6091:6157   */\n      swap1\n      pop\n        /* \"#utility.yul\":6021:6163   */\n      swap2\n      swap1\n      pop\n      jump\t// out\n        /* \"#utility.yul\":6169:6244   */\n    tag_62:\n        /* \"#utility.yul\":6212:6215   */\n      0x00\n        /* \"#utility.yul\":6233:6238   */\n      dup2\n        /* \"#utility.yul\":6226:6238   */\n      swap1\n      pop\n        /* \"#utility.yul\":6169:6244   */\n      swap2\n      swap1\n      pop\n      jump\t// out\n        /* \"#utility.yul\":6250:6519   */\n    tag_63:\n        /* \"#utility.yul\":6360:6399   */\n      tag_141\n        /* \"#utility.yul\":6391:6398   */\n      dup4\n        /* \"#utility.yul\":6360:6399   */\n      tag_61\n      jump\t// in\n    tag_141:\n        /* \"#utility.yul\":6421:6512   */\n      tag_142\n        /* \"#utility.yul\":6470:6511   */\n      tag_143\n        /* \"#utility.yul\":6494:6510   */\n      dup3\n        /* \"#utility.yul\":6470:6511   */\n      tag_62\n      jump\t// in\n    tag_143:\n        /* \"#utility.yul\":6462:6468   */\n      dup5\n        /* \"#utility.yul\":6455:6459   */\n      dup5\n        /* \"#utility.yul\":6449:6460   */\n      sload\n        /* \"#utility.yul\":6421:6512   */\n      tag_59\n      jump\t// in\n    tag_142:\n        /* \"#utility.yul\":6415:6419   */\n      dup3\n        /* \"#utility.yul\":6408:6513   */\n      sstore\n        /* \"#utility.yul\":6326:6519   */\n      pop\n        /* \"#utility.yul\":6250:6519   */\n      pop\n      pop\n      pop\n      jump\t// out\n        /* \"#utility.yul\":6525:6598   */\n    tag_64:\n        /* \"#utility.yul\":6570:6573   */\n      0x00\n        /* \"#utility.yul\":6525:6598   */\n      swap1\n      jump\t// out\n        /* \"#utility.yul\":6604:6793   */\n    tag_65:\n        /* \"#utility.yul\":6681:6713   */\n      tag_146\n      tag_64\n      jump\t// in\n    tag_146:\n        /* \"#utility.yul\":6722:6787   */\n      tag_147\n        /* \"#utility.yul\":6780:6786   */\n      dup2\n        /* \"#utility.yul\":6772:6778   */\n      dup5\n        /* \"#utility.yul\":6766:6770   */\n      dup5\n        /* \"#utility.yul\":6722:6787   */\n      tag_63\n      jump\t// in\n    tag_147:\n        /* \"#utility.yul\":6657:6793   */\n      pop\n        /* \"#utility.yul\":6604:6793   */\n      pop\n      pop\n      jump\t// out\n        /* \"#utility.yul\":6799:6985   */\n    tag_66:\n        /* \"#utility.yul\":6859:6979   */\n    tag_149:\n        /* \"#utility.yul\":6876:6879   */\n      dup2\n        /* \"#utility.yul\":6869:6874   */\n      dup2\n        /* \"#utility.yul\":6866:6880   */\n      lt\n        /* \"#utility.yul\":6859:6979   */\n      iszero\n      tag_151\n      jumpi\n        /* \"#utility.yul\":6930:6969   */\n      tag_152\n        /* \"#utility.yul\":6967:6968   */\n      0x00\n        /* \"#utility.yul\":6960:6965   */\n      dup3\n        /* \"#utility.yul\":6930:6969   */\n      tag_65\n      jump\t// in\n    tag_152:\n        /* \"#utility.yul\":6903:6904   */\n      0x01\n        /* \"#utility.yul\":6896:6901   */\n      dup2\n        /* \"#utility.yul\":6892:6905   */\n      add\n        /* \"#utility.yul\":6883:6905   */\n      swap1\n      pop\n        /* \"#utility.yul\":6859:6979   */\n      jump(tag_149)\n    tag_151:\n        /* \"#utility.yul\":6799:6985   */\n      pop\n      pop\n      jump\t// out\n        /* \"#utility.yul\":6991:7534   */\n    tag_67:\n        /* \"#utility.yul\":7092:7094   */\n      0x1f\n        /* \"#utility.yul\":7087:7090   */\n      dup3\n        /* \"#utility.yul\":7084:7095   */\n      gt\n        /* \"#utility.yul\":7081:7527   */\n      iszero\n      tag_154\n      jumpi\n        /* \"#utility.yul\":7126:7164   */\n      tag_155\n        /* \"#utility.yul\":7158:7163   */\n      dup2\n        /* \"#utility.yul\":7126:7164   */\n      tag_56\n      jump\t// in\n    tag_155:\n        /* \"#utility.yul\":7210:7239   */\n      tag_156\n        /* \"#utility.yul\":7228:7238   */\n      dup5\n        /* \"#utility.yul\":7210:7239   */\n      tag_57\n      jump\t// in\n    tag_156:\n        /* \"#utility.yul\":7200:7208   */\n      dup2\n        /* \"#utility.yul\":7196:7240   */\n      add\n        /* \"#utility.yul\":7393:7395   */\n      0x20\n        /* \"#utility.yul\":7381:7391   */\n      dup6\n        /* \"#utility.yul\":7378:7396   */\n      lt\n        /* \"#utility.yul\":7375:7424   */\n      iszero\n      tag_157\n      jumpi\n        /* \"#utility.yul\":7414:7422   */\n      dup2\n        /* \"#utility.yul\":7399:7422   */\n      swap1\n      pop\n        /* \"#utility.yul\":7375:7424   */\n    tag_157:\n        /* \"#utility.yul\":7437:7517   */\n      tag_158\n        /* \"#utility.yul\":7493:7515   */\n      tag_159\n        /* \"#utility.yul\":7511:7514   */\n      dup6\n        /* \"#utility.yul\":7493:7515   */\n      tag_57\n      jump\t// in\n    tag_159:\n        /* \"#utility.yul\":7483:7491   */\n      dup4\n        /* \"#utility.yul\":7479:7516   */\n      add\n        /* \"#utility.yul\":7466:7477   */\n      dup3\n        /* \"#utility.yul\":7437:7517   */\n      tag_66\n      jump\t// in\n    tag_158:\n        /* \"#utility.yul\":7096:7527   */\n      pop\n      pop\n        /* \"#utility.yul\":7081:7527   */\n    tag_154:\n        /* \"#utility.yul\":6991:7534   */\n      pop\n      pop\n      pop\n      jump\t// out\n        /* \"#utility.yul\":7540:7657   */\n    tag_68:\n        /* \"#utility.yul\":7594:7602   */\n      0x00\n        /* \"#utility.yul\":7644:7649   */\n      dup3\n        /* \"#utility.yul\":7638:7642   */\n      dup3\n        /* \"#utility.yul\":7634:7650   */\n      shr\n        /* \"#utility.yul\":7613:7650   */\n      swap1\n      pop\n        /* \"#utility.yul\":7540:7657   */\n      swap3\n      swap2\n      pop\n      pop\n      jump\t// out\n        /* \"#utility.yul\":7663:7832   */\n    tag_69:\n        /* \"#utility.yul\":7707:7713   */\n      0x00\n        /* \"#utility.yul\":7740:7791   */\n      tag_162\n        /* \"#utility.yul\":7788:7789   */\n      0x00\n        /* \"#utility.yul\":7784:7790   */\n      not\n        /* \"#utility.yul\":7776:7781   */\n      dup5\n        /* \"#utility.yul\":7773:7774   */\n      0x08\n        /* \"#utility.yul\":7769:7782   */\n      mul\n        /* \"#utility.yul\":7740:7791   */\n      tag_68\n      jump\t// in\n    tag_162:\n        /* \"#utility.yul\":7736:7792   */\n      not\n        /* \"#utility.yul\":7821:7825   */\n      dup1\n        /* \"#utility.yul\":7815:7819   */\n      dup4\n        /* \"#utility.yul\":7811:7826   */\n      and\n        /* \"#utility.yul\":7801:7826   */\n      swap2\n      pop\n        /* \"#utility.yul\":7714:7832   */\n      pop\n        /* \"#utility.yul\":7663:7832   */\n      swap3\n      swap2\n      pop\n      pop\n      jump\t// out\n        /* \"#utility.yul\":7837:8132   */\n    tag_70:\n        /* \"#utility.yul\":7913:7917   */\n      0x00\n        /* \"#utility.yul\":8059:8088   */\n      tag_164\n        /* \"#utility.yul\":8084:8087   */\n      dup4\n        /* \"#utility.yul\":8078:8082   */\n      dup4\n        /* \"#utility.yul\":8059:8088   */\n      tag_69\n      jump\t// in\n    tag_164:\n        /* \"#utility.yul\":8051:8088   */\n      swap2\n      pop\n        /* \"#utility.yul\":8121:8124   */\n      dup3\n        /* \"#utility.yul\":8118:8119   */\n      0x02\n        /* \"#utility.yul\":8114:8125   */\n      mul\n        /* \"#utility.yul\":8108:8112   */\n      dup3\n        /* \"#utility.yul\":8105:8126   */\n      or\n        /* \"#utility.yul\":8097:8126   */\n      swap1\n      pop\n        /* \"#utility.yul\":7837:8132   */\n      swap3\n      swap2\n      pop\n      pop\n      jump\t// out\n        /* \"#utility.yul\":8137:9532   */\n    tag_29:\n        /* \"#utility.yul\":8254:8291   */\n      tag_166\n        /* \"#utility.yul\":8287:8290   */\n      dup3\n        /* \"#utility.yul\":8254:8291   */\n      tag_49\n      jump\t// in\n    tag_166:\n        /* \"#utility.yul\":8356:8374   */\n      0xffffffffffffffff\n        /* \"#utility.yul\":8348:8354   */\n      dup2\n        /* \"#utility.yul\":8345:8375   */\n      gt\n        /* \"#utility.yul\":8342:8398   */\n      iszero\n      tag_167\n      jumpi\n        /* \"#utility.yul\":8378:8396   */\n      tag_168\n      tag_54\n      jump\t// in\n    tag_168:\n        /* \"#utility.yul\":8342:8398   */\n    tag_167:\n        /* \"#utility.yul\":8422:8460   */\n      tag_169\n        /* \"#utility.yul\":8454:8458   */\n      dup3\n        /* \"#utility.yul\":8448:8459   */\n      sload\n        /* \"#utility.yul\":8422:8460   */\n      tag_33\n      jump\t// in\n    tag_169:\n        /* \"#utility.yul\":8507:8574   */\n      tag_170\n        /* \"#utility.yul\":8567:8573   */\n      dup3\n        /* \"#utility.yul\":8559:8565   */\n      dup3\n        /* \"#utility.yul\":8553:8557   */\n      dup6\n        /* \"#utility.yul\":8507:8574   */\n      tag_67\n      jump\t// in\n    tag_170:\n        /* \"#utility.yul\":8601:8602   */\n      0x00\n        /* \"#utility.yul\":8625:8629   */\n      0x20\n        /* \"#utility.yul\":8612:8629   */\n      swap1\n      pop\n        /* \"#utility.yul\":8657:8659   */\n      0x1f\n        /* \"#utility.yul\":8649:8655   */\n      dup4\n        /* \"#utility.yul\":8646:8660   */\n      gt\n        /* \"#utility.yul\":8674:8675   */\n      0x01\n        /* \"#utility.yul\":8669:9287   */\n      dup2\n      eq\n      tag_172\n      jumpi\n        /* \"#utility.yul\":9331:9332   */\n      0x00\n        /* \"#utility.yul\":9348:9354   */\n      dup5\n        /* \"#utility.yul\":9345:9422   */\n      iszero\n      tag_173\n      jumpi\n        /* \"#utility.yul\":9397:9406   */\n      dup3\n        /* \"#utility.yul\":9392:9395   */\n      dup8\n        /* \"#utility.yul\":9388:9407   */\n      add\n        /* \"#utility.yul\":9382:9408   */\n      mload\n        /* \"#utility.yul\":9373:9408   */\n      swap1\n      pop\n        /* \"#utility.yul\":9345:9422   */\n    tag_173:\n        /* \"#utility.yul\":9448:9515   */\n      tag_174\n        /* \"#utility.yul\":9508:9514   */\n      dup6\n        /* \"#utility.yul\":9501:9506   */\n      dup3\n        /* \"#utility.yul\":9448:9515   */\n      tag_70\n      jump\t// in\n    tag_174:\n        /* \"#utility.yul\":9442:9446   */\n      dup7\n        /* \"#utility.yul\":9435:9516   */\n      sstore\n        /* \"#utility.yul\":9304:9526   */\n      pop\n        /* \"#utility.yul\":8639:9526   */\n      jump(tag_171)\n        /* \"#utility.yul\":8669:9287   */\n    tag_172:\n        /* \"#utility.yul\":8721:8725   */\n      0x1f\n        /* \"#utility.yul\":8717:8726   */\n      not\n        /* \"#utility.yul\":8709:8715   */\n      dup5\n        /* \"#utility.yul\":8705:8727   */\n      and\n        /* \"#utility.yul\":8755:8792   */\n      tag_175\n        /* \"#utility.yul\":8787:8791   */\n      dup7\n        /* \"#utility.yul\":8755:8792   */\n      tag_56\n      jump\t// in\n    tag_175:\n        /* \"#utility.yul\":8814:8815   */\n      0x00\n        /* \"#utility.yul\":8828:9036   */\n    tag_176:\n        /* \"#utility.yul\":8842:8849   */\n      dup3\n        /* \"#utility.yul\":8839:8840   */\n      dup2\n        /* \"#utility.yul\":8836:8850   */\n      lt\n        /* \"#utility.yul\":8828:9036   */\n      iszero\n      tag_178\n      jumpi\n        /* \"#utility.yul\":8921:8930   */\n      dup5\n        /* \"#utility.yul\":8916:8919   */\n      dup10\n        /* \"#utility.yul\":8912:8931   */\n      add\n        /* \"#utility.yul\":8906:8932   */\n      mload\n        /* \"#utility.yul\":8898:8904   */\n      dup3\n        /* \"#utility.yul\":8891:8933   */\n      sstore\n        /* \"#utility.yul\":8972:8973   */\n      0x01\n        /* \"#utility.yul\":8964:8970   */\n      dup3\n        /* \"#utility.yul\":8960:8974   */\n      add\n        /* \"#utility.yul\":8950:8974   */\n      swap2\n      pop\n        /* \"#utility.yul\":9019:9021   */\n      0x20\n        /* \"#utility.yul\":9008:9017   */\n      dup6\n        /* \"#utility.yul\":9004:9022   */\n      add\n        /* \"#utility.yul\":8991:9022   */\n      swap5\n      pop\n        /* \"#utility.yul\":8865:8869   */\n      0x20\n        /* \"#utility.yul\":8862:8863   */\n      dup2\n        /* \"#utility.yul\":8858:8870   */\n      add\n        /* \"#utility.yul\":8853:8870   */\n      swap1\n      pop\n        /* \"#utility.yul\":8828:9036   */\n      jump(tag_176)\n    tag_178:\n        /* \"#utility.yul\":9064:9070   */\n      dup7\n        /* \"#utility.yul\":9055:9062   */\n      dup4\n        /* \"#utility.yul\":9052:9071   */\n      lt\n        /* \"#utility.yul\":9049:9228   */\n      iszero\n      tag_179\n      jumpi\n        /* \"#utility.yul\":9122:9131   */\n      dup5\n        /* \"#utility.yul\":9117:9120   */\n      dup10\n        /* \"#utility.yul\":9113:9132   */\n      add\n        /* \"#utility.yul\":9107:9133   */\n      mload\n        /* \"#utility.yul\":9165:9213   */\n      tag_180\n        /* \"#utility.yul\":9207:9211   */\n      0x1f\n        /* \"#utility.yul\":9199:9205   */\n      dup10\n        /* \"#utility.yul\":9195:9212   */\n      and\n        /* \"#utility.yul\":9184:9193   */\n      dup3\n        /* \"#utility.yul\":9165:9213   */\n      tag_69\n      jump\t// in\n    tag_180:\n        /* \"#utility.yul\":9157:9163   */\n      dup4\n        /* \"#utility.yul\":9150:9214   */\n      sstore\n        /* \"#utility.yul\":9072:9228   */\n      pop\n        /* \"#utility.yul\":9049:9228   */\n    tag_179:\n        /* \"#utility.yul\":9274:9275   */\n      0x01\n        /* \"#utility.yul\":9270:9271   */\n      0x02\n        /* \"#utility.yul\":9262:9268   */\n      dup9\n        /* \"#utility.yul\":9258:9272   */\n      mul\n        /* \"#utility.yul\":9254:9276   */\n      add\n        /* \"#utility.yul\":9248:9252   */\n      dup9\n        /* \"#utility.yul\":9241:9277   */\n      sstore\n        /* \"#utility.yul\":8676:9287   */\n      pop\n      pop\n      pop\n        /* \"#utility.yul\":8639:9526   */\n    tag_171:\n      pop\n        /* \"#utility.yul\":8229:9532   */\n      pop\n      pop\n      pop\n        /* \"#utility.yul\":8137:9532   */\n      pop\n      pop\n      jump\t// out\n\n    auxdata: 0xa2646970667358221220fd853cf39aaff69d3cafac76b161ca9ba3c4e80e9eb0cba2aa9d8c339f2f271164736f6c634300080f0033\n}\n",
				"bytecode": {
					"linkReferences": {},
					"object": "608060405234801561001057600080fd5b506107ba806100206000396000f3fe608060405234801561001057600080fd5b506004361061004c5760003560e01c80632e64cec1146100515780636057361d1461006f5780636f760f411461008b5780639e7a13ad146100a7575b600080fd5b6100596100d8565b604051610066919061026b565b60405180910390f35b610089600480360381019061008491906102bc565b6100e1565b005b6100a560048036038101906100a0919061034e565b6100eb565b005b6100c160048036038101906100bc91906102bc565b610196565b6040516100cf929190610447565b60405180910390f35b60008054905090565b8060008190555050565b6001604051806040016040528083815260200185858080601f016020809104026020016040519081016040528093929190818152602001838380828437600081840152601f19601f82011690508083019250505050505050815250908060018154018082558091505060019003906000526020600020906002020160009091909190915060008201518160000155602082015181600101908161018e91906106b2565b505050505050565b600181815481106101a657600080fd5b90600052602060002090600202016000915090508060000154908060010180546101cf906104d5565b80601f01602080910402602001604051908101604052809291908181526020018280546101fb906104d5565b80156102485780601f1061021d57610100808354040283529160200191610248565b820191906000526020600020905b81548152906001019060200180831161022b57829003601f168201915b5050505050905082565b6000819050919050565b61026581610252565b82525050565b6000602082019050610280600083018461025c565b92915050565b600080fd5b600080fd5b61029981610252565b81146102a457600080fd5b50565b6000813590506102b681610290565b92915050565b6000602082840312156102d2576102d1610286565b5b60006102e0848285016102a7565b91505092915050565b600080fd5b600080fd5b600080fd5b60008083601f84011261030e5761030d6102e9565b5b8235905067ffffffffffffffff81111561032b5761032a6102ee565b5b602083019150836001820283011115610347576103466102f3565b5b9250929050565b60008060006040848603121561036757610366610286565b5b600084013567ffffffffffffffff8111156103855761038461028b565b5b610391868287016102f8565b935093505060206103a4868287016102a7565b9150509250925092565b600081519050919050565b600082825260208201905092915050565b60005b838110156103e85780820151818401526020810190506103cd565b838111156103f7576000848401525b50505050565b6000601f19601f8301169050919050565b6000610419826103ae565b61042381856103b9565b93506104338185602086016103ca565b61043c816103fd565b840191505092915050565b600060408201905061045c600083018561025c565b818103602083015261046e818461040e565b90509392505050565b7f4e487b7100000000000000000000000000000000000000000000000000000000600052604160045260246000fd5b7f4e487b7100000000000000000000000000000000000000000000000000000000600052602260045260246000fd5b600060028204905060018216806104ed57607f821691505b602082108103610500576104ff6104a6565b5b50919050565b60008190508160005260206000209050919050565b60006020601f8301049050919050565b600082821b905092915050565b6000600883026105687fffffffffffffffffffffffffffffffffffffffffffffffffffffffffffffffff8261052b565b610572868361052b565b95508019841693508086168417925050509392505050565b6000819050919050565b60006105af6105aa6105a584610252565b61058a565b610252565b9050919050565b6000819050919050565b6105c983610594565b6105dd6105d5826105b6565b848454610538565b825550505050565b600090565b6105f26105e5565b6105fd8184846105c0565b505050565b5b81811015610621576106166000826105ea565b600181019050610603565b5050565b601f8211156106665761063781610506565b6106408461051b565b8101602085101561064f578190505b61066361065b8561051b565b830182610602565b50505b505050565b600082821c905092915050565b60006106896000198460080261066b565b1980831691505092915050565b60006106a28383610678565b9150826002028217905092915050565b6106bb826103ae565b67ffffffffffffffff8111156106d4576106d3610477565b5b6106de82546104d5565b6106e9828285610625565b600060209050601f83116001811461071c576000841561070a578287015190505b6107148582610696565b86555061077c565b601f19841661072a86610506565b60005b828110156107525784890151825560018201915060208501945060208101905061072d565b8683101561076f578489015161076b601f891682610678565b8355505b6001600288020188555050505b50505050505056fea2646970667358221220fd853cf39aaff69d3cafac76b161ca9ba3c4e80e9eb0cba2aa9d8c339f2f271164736f6c634300080f0033",
					"opcodes": "PUSH1 0x80 PUSH1 0x40 MSTORE CALLVALUE DUP1 ISZERO PUSH2 0x10 JUMPI PUSH1 0x0 DUP1 REVERT JUMPDEST POP PUSH2 0x7BA DUP1 PUSH2 0x20 PUSH1 0x0 CODECOPY PUSH1 0x0 RETURN INVALID PUSH1 0x80 PUSH1 0x40 MSTORE CALLVALUE DUP1 ISZERO PUSH2 0x10 JUMPI PUSH1 0x0 DUP1 REVERT JUMPDEST POP PUSH1 0x4 CALLDATASIZE LT PUSH2 0x4C JUMPI PUSH1 0x0 CALLDATALOAD PUSH1 0xE0 SHR DUP1 PUSH4 0x2E64CEC1 EQ PUSH2 0x51 JUMPI DUP1 PUSH4 0x6057361D EQ PUSH2 0x6F JUMPI DUP1 PUSH4 0x6F760F41 EQ PUSH2 0x8B JUMPI DUP1 PUSH4 0x9E7A13AD EQ PUSH2 0xA7 JUMPI JUMPDEST PUSH1 0x0 DUP1 REVERT JUMPDEST PUSH2 0x59 PUSH2 0xD8 JUMP JUMPDEST PUSH1 0x40 MLOAD PUSH2 0x66 SWAP2 SWAP1 PUSH2 0x26B JUMP JUMPDEST PUSH1 0x40 MLOAD DUP1 SWAP2 SUB SWAP1 RETURN JUMPDEST PUSH2 0x89 PUSH1 0x4 DUP1 CALLDATASIZE SUB DUP2 ADD SWAP1 PUSH2 0x84 SWAP2 SWAP1 PUSH2 0x2BC JUMP JUMPDEST PUSH2 0xE1 JUMP JUMPDEST STOP JUMPDEST PUSH2 0xA5 PUSH1 0x4 DUP1 CALLDATASIZE SUB DUP2 ADD SWAP1 PUSH2 0xA0 SWAP2 SWAP1 PUSH2 0x34E JUMP JUMPDEST PUSH2 0xEB JUMP JUMPDEST STOP JUMPDEST PUSH2 0xC1 PUSH1 0x4 DUP1 CALLDATASIZE SUB DUP2 ADD SWAP1 PUSH2 0xBC SWAP2 SWAP1 PUSH2 0x2BC JUMP JUMPDEST PUSH2 0x196 JUMP JUMPDEST PUSH1 0x40 MLOAD PUSH2 0xCF SWAP3 SWAP2 SWAP1 PUSH2 0x447 JUMP JUMPDEST PUSH1 0x40 MLOAD DUP1 SWAP2 SUB SWAP1 RETURN JUMPDEST PUSH1 0x0 DUP1 SLOAD SWAP1 POP SWAP1 JUMP JUMPDEST DUP1 PUSH1 0x0 DUP2 SWAP1 SSTORE POP POP JUMP JUMPDEST PUSH1 0x1 PUSH1 0x40 MLOAD DUP1 PUSH1 0x40 ADD PUSH1 0x40 MSTORE DUP1 DUP4 DUP2 MSTORE PUSH1 0x20 ADD DUP6 DUP6 DUP1 DUP1 PUSH1 0x1F ADD PUSH1 0x20 DUP1 SWAP2 DIV MUL PUSH1 0x20 ADD PUSH1 0x40 MLOAD SWAP1 DUP2 ADD PUSH1 0x40 MSTORE DUP1 SWAP4 SWAP3 SWAP2 SWAP1 DUP2 DUP2 MSTORE PUSH1 0x20 ADD DUP4 DUP4 DUP1 DUP3 DUP5 CALLDATACOPY PUSH1 0x0 DUP2 DUP5 ADD MSTORE PUSH1 0x1F NOT PUSH1 0x1F DUP3 ADD AND SWAP1 POP DUP1 DUP4 ADD SWAP3 POP POP POP POP POP POP POP DUP2 MSTORE POP SWAP1 DUP1 PUSH1 0x1 DUP2 SLOAD ADD DUP1 DUP3 SSTORE DUP1 SWAP2 POP POP PUSH1 0x1 SWAP1 SUB SWAP1 PUSH1 0x0 MSTORE PUSH1 0x20 PUSH1 0x0 KECCAK256 SWAP1 PUSH1 0x2 MUL ADD PUSH1 0x0 SWAP1 SWAP2 SWAP1 SWAP2 SWAP1 SWAP2 POP PUSH1 0x0 DUP3 ADD MLOAD DUP2 PUSH1 0x0 ADD SSTORE PUSH1 0x20 DUP3 ADD MLOAD DUP2 PUSH1 0x1 ADD SWAP1 DUP2 PUSH2 0x18E SWAP2 SWAP1 PUSH2 0x6B2 JUMP JUMPDEST POP POP POP POP POP POP JUMP JUMPDEST PUSH1 0x1 DUP2 DUP2 SLOAD DUP2 LT PUSH2 0x1A6 JUMPI PUSH1 0x0 DUP1 REVERT JUMPDEST SWAP1 PUSH1 0x0 MSTORE PUSH1 0x20 PUSH1 0x0 KECCAK256 SWAP1 PUSH1 0x2 MUL ADD PUSH1 0x0 SWAP2 POP SWAP1 POP DUP1 PUSH1 0x0 ADD SLOAD SWAP1 DUP1 PUSH1 0x1 ADD DUP1 SLOAD PUSH2 0x1CF SWAP1 PUSH2 0x4D5 JUMP JUMPDEST DUP1 PUSH1 0x1F ADD PUSH1 0x20 DUP1 SWAP2 DIV MUL PUSH1 0x20 ADD PUSH1 0x40 MLOAD SWAP1 DUP2 ADD PUSH1 0x40 MSTORE DUP1 SWAP3 SWAP2 SWAP1 DUP2 DUP2 MSTORE PUSH1 0x20 ADD DUP3 DUP1 SLOAD PUSH2 0x1FB SWAP1 PUSH2 0x4D5 JUMP JUMPDEST DUP1 ISZERO PUSH2 0x248 JUMPI DUP1 PUSH1 0x1F LT PUSH2 0x21D JUMPI PUSH2 0x100 DUP1 DUP4 SLOAD DIV MUL DUP4 MSTORE SWAP2 PUSH1 0x20 ADD SWAP2 PUSH2 0x248 JUMP JUMPDEST DUP3 ADD SWAP2 SWAP1 PUSH1 0x0 MSTORE PUSH1 0x20 PUSH1 0x0 KECCAK256 SWAP1 JUMPDEST DUP2 SLOAD DUP2 MSTORE SWAP1 PUSH1 0x1 ADD SWAP1 PUSH1 0x20 ADD DUP1 DUP4 GT PUSH2 0x22B JUMPI DUP3 SWAP1 SUB PUSH1 0x1F AND DUP3 ADD SWAP2 JUMPDEST POP POP POP POP POP SWAP1 POP DUP3 JUMP JUMPDEST PUSH1 0x0 DUP2 SWAP1 POP SWAP2 SWAP1 POP JUMP JUMPDEST PUSH2 0x265 DUP2 PUSH2 0x252 JUMP JUMPDEST DUP3 MSTORE POP POP JUMP JUMPDEST PUSH1 0x0 PUSH1 0x20 DUP3 ADD SWAP1 POP PUSH2 0x280 PUSH1 0x0 DUP4 ADD DUP5 PUSH2 0x25C JUMP JUMPDEST SWAP3 SWAP2 POP POP JUMP JUMPDEST PUSH1 0x0 DUP1 REVERT JUMPDEST PUSH1 0x0 DUP1 REVERT JUMPDEST PUSH2 0x299 DUP2 PUSH2 0x252 JUMP JUMPDEST DUP2 EQ PUSH2 0x2A4 JUMPI PUSH1 0x0 DUP1 REVERT JUMPDEST POP JUMP JUMPDEST PUSH1 0x0 DUP2 CALLDATALOAD SWAP1 POP PUSH2 0x2B6 DUP2 PUSH2 0x290 JUMP JUMPDEST SWAP3 SWAP2 POP POP JUMP JUMPDEST PUSH1 0x0 PUSH1 0x20 DUP3 DUP5 SUB SLT ISZERO PUSH2 0x2D2 JUMPI PUSH2 0x2D1 PUSH2 0x286 JUMP JUMPDEST JUMPDEST PUSH1 0x0 PUSH2 0x2E0 DUP5 DUP3 DUP6 ADD PUSH2 0x2A7 JUMP JUMPDEST SWAP2 POP POP SWAP3 SWAP2 POP POP JUMP JUMPDEST PUSH1 0x0 DUP1 REVERT JUMPDEST PUSH1 0x0 DUP1 REVERT JUMPDEST PUSH1 0x0 DUP1 REVERT JUMPDEST PUSH1 0x0 DUP1 DUP4 PUSH1 0x1F DUP5 ADD SLT PUSH2 0x30E JUMPI PUSH2 0x30D PUSH2 0x2E9 JUMP JUMPDEST JUMPDEST DUP3 CALLDATALOAD SWAP1 POP PUSH8 0xFFFFFFFFFFFFFFFF DUP2 GT ISZERO PUSH2 0x32B JUMPI PUSH2 0x32A PUSH2 0x2EE JUMP JUMPDEST JUMPDEST PUSH1 0x20 DUP4 ADD SWAP2 POP DUP4 PUSH1 0x1 DUP3 MUL DUP4 ADD GT ISZERO PUSH2 0x347 JUMPI PUSH2 0x346 PUSH2 0x2F3 JUMP JUMPDEST JUMPDEST SWAP3 POP SWAP3 SWAP1 POP JUMP JUMPDEST PUSH1 0x0 DUP1 PUSH1 0x0 PUSH1 0x40 DUP5 DUP7 SUB SLT ISZERO PUSH2 0x367 JUMPI PUSH2 0x366 PUSH2 0x286 JUMP JUMPDEST JUMPDEST PUSH1 0x0 DUP5 ADD CALLDATALOAD PUSH8 0xFFFFFFFFFFFFFFFF DUP2 GT ISZERO PUSH2 0x385 JUMPI PUSH2 0x384 PUSH2 0x28B JUMP JUMPDEST JUMPDEST PUSH2 0x391 DUP7 DUP3 DUP8 ADD PUSH2 0x2F8 JUMP JUMPDEST SWAP4 POP SWAP4 POP POP PUSH1 0x20 PUSH2 0x3A4 DUP7 DUP3 DUP8 ADD PUSH2 0x2A7 JUMP JUMPDEST SWAP2 POP POP SWAP3 POP SWAP3 POP SWAP3 JUMP JUMPDEST PUSH1 0x0 DUP2 MLOAD SWAP1 POP SWAP2 SWAP1 POP JUMP JUMPDEST PUSH1 0x0 DUP3 DUP3 MSTORE PUSH1 0x20 DUP3 ADD SWAP1 POP SWAP3 SWAP2 POP POP JUMP JUMPDEST PUSH1 0x0 JUMPDEST DUP4 DUP2 LT ISZERO PUSH2 0x3E8 JUMPI DUP1 DUP3 ADD MLOAD DUP2 DUP5 ADD MSTORE PUSH1 0x20 DUP2 ADD SWAP1 POP PUSH2 0x3CD JUMP JUMPDEST DUP4 DUP2 GT ISZERO PUSH2 0x3F7 JUMPI PUSH1 0x0 DUP5 DUP5 ADD MSTORE JUMPDEST POP POP POP POP JUMP JUMPDEST PUSH1 0x0 PUSH1 0x1F NOT PUSH1 0x1F DUP4 ADD AND SWAP1 POP SWAP2 SWAP1 POP JUMP JUMPDEST PUSH1 0x0 PUSH2 0x419 DUP3 PUSH2 0x3AE JUMP JUMPDEST PUSH2 0x423 DUP2 DUP6 PUSH2 0x3B9 JUMP JUMPDEST SWAP4 POP PUSH2 0x433 DUP2 DUP6 PUSH1 0x20 DUP7 ADD PUSH2 0x3CA JUMP JUMPDEST PUSH2 0x43C DUP2 PUSH2 0x3FD JUMP JUMPDEST DUP5 ADD SWAP2 POP POP SWAP3 SWAP2 POP POP JUMP JUMPDEST PUSH1 0x0 PUSH1 0x40 DUP3 ADD SWAP1 POP PUSH2 0x45C PUSH1 0x0 DUP4 ADD DUP6 PUSH2 0x25C JUMP JUMPDEST DUP2 DUP2 SUB PUSH1 0x20 DUP4 ADD MSTORE PUSH2 0x46E DUP2 DUP5 PUSH2 0x40E JUMP JUMPDEST SWAP1 POP SWAP4 SWAP3 POP POP POP JUMP JUMPDEST PUSH32 0x4E487B7100000000000000000000000000000000000000000000000000000000 PUSH1 0x0 MSTORE PUSH1 0x41 PUSH1 0x4 MSTORE PUSH1 0x24 PUSH1 0x0 REVERT JUMPDEST PUSH32 0x4E487B7100000000000000000000000000000000000000000000000000000000 PUSH1 0x0 MSTORE PUSH1 0x22 PUSH1 0x4 MSTORE PUSH1 0x24 PUSH1 0x0 REVERT JUMPDEST PUSH1 0x0 PUSH1 0x2 DUP3 DIV SWAP1 POP PUSH1 0x1 DUP3 AND DUP1 PUSH2 0x4ED JUMPI PUSH1 0x7F DUP3 AND SWAP2 POP JUMPDEST PUSH1 0x20 DUP3 LT DUP2 SUB PUSH2 0x500 JUMPI PUSH2 0x4FF PUSH2 0x4A6 JUMP JUMPDEST JUMPDEST POP SWAP2 SWAP1 POP JUMP JUMPDEST PUSH1 0x0 DUP2 SWAP1 POP DUP2 PUSH1 0x0 MSTORE PUSH1 0x20 PUSH1 0x0 KECCAK256 SWAP1 POP SWAP2 SWAP1 POP JUMP JUMPDEST PUSH1 0x0 PUSH1 0x20 PUSH1 0x1F DUP4 ADD DIV SWAP1 POP SWAP2 SWAP1 POP JUMP JUMPDEST PUSH1 0x0 DUP3 DUP3 SHL SWAP1 POP SWAP3 SWAP2 POP POP JUMP JUMPDEST PUSH1 0x0 PUSH1 0x8 DUP4 MUL PUSH2 0x568 PUSH32 0xFFFFFFFFFFFFFFFFFFFFFFFFFFFFFFFFFFFFFFFFFFFFFFFFFFFFFFFFFFFFFFFF DUP3 PUSH2 0x52B JUMP JUMPDEST PUSH2 0x572 DUP7 DUP4 PUSH2 0x52B JUMP JUMPDEST SWAP6 POP DUP1 NOT DUP5 AND SWAP4 POP DUP1 DUP7 AND DUP5 OR SWAP3 POP POP POP SWAP4 SWAP3 POP POP POP JUMP JUMPDEST PUSH1 0x0 DUP2 SWAP1 POP SWAP2 SWAP1 POP JUMP JUMPDEST PUSH1 0x0 PUSH2 0x5AF PUSH2 0x5AA PUSH2 0x5A5 DUP5 PUSH2 0x252 JUMP JUMPDEST PUSH2 0x58A JUMP JUMPDEST PUSH2 0x252 JUMP JUMPDEST SWAP1 POP SWAP2 SWAP1 POP JUMP JUMPDEST PUSH1 0x0 DUP2 SWAP1 POP SWAP2 SWAP1 POP JUMP JUMPDEST PUSH2 0x5C9 DUP4 PUSH2 0x594 JUMP JUMPDEST PUSH2 0x5DD PUSH2 0x5D5 DUP3 PUSH2 0x5B6 JUMP JUMPDEST DUP5 DUP5 SLOAD PUSH2 0x538 JUMP JUMPDEST DUP3 SSTORE POP POP POP POP JUMP JUMPDEST PUSH1 0x0 SWAP1 JUMP JUMPDEST PUSH2 0x5F2 PUSH2 0x5E5 JUMP JUMPDEST PUSH2 0x5FD DUP2 DUP5 DUP5 PUSH2 0x5C0 JUMP JUMPDEST POP POP POP JUMP JUMPDEST JUMPDEST DUP2 DUP2 LT ISZERO PUSH2 0x621 JUMPI PUSH2 0x616 PUSH1 0x0 DUP3 PUSH2 0x5EA JUMP JUMPDEST PUSH1 0x1 DUP2 ADD SWAP1 POP PUSH2 0x603 JUMP JUMPDEST POP POP JUMP JUMPDEST PUSH1 0x1F DUP3 GT ISZERO PUSH2 0x666 JUMPI PUSH2 0x637 DUP2 PUSH2 0x506 JUMP JUMPDEST PUSH2 0x640 DUP5 PUSH2 0x51B JUMP JUMPDEST DUP2 ADD PUSH1 0x20 DUP6 LT ISZERO PUSH2 0x64F JUMPI DUP2 SWAP1 POP JUMPDEST PUSH2 0x663 PUSH2 0x65B DUP6 PUSH2 0x51B JUMP JUMPDEST DUP4 ADD DUP3 PUSH2 0x602 JUMP JUMPDEST POP POP JUMPDEST POP POP POP JUMP JUMPDEST PUSH1 0x0 DUP3 DUP3 SHR SWAP1 POP SWAP3 SWAP2 POP POP JUMP JUMPDEST PUSH1 0x0 PUSH2 0x689 PUSH1 0x0 NOT DUP5 PUSH1 0x8 MUL PUSH2 0x66B JUMP JUMPDEST NOT DUP1 DUP4 AND SWAP2 POP POP SWAP3 SWAP2 POP POP JUMP JUMPDEST PUSH1 0x0 PUSH2 0x6A2 DUP4 DUP4 PUSH2 0x678 JUMP JUMPDEST SWAP2 POP DUP3 PUSH1 0x2 MUL DUP3 OR SWAP1 POP SWAP3 SWAP2 POP POP JUMP JUMPDEST PUSH2 0x6BB DUP3 PUSH2 0x3AE JUMP JUMPDEST PUSH8 0xFFFFFFFFFFFFFFFF DUP2 GT ISZERO PUSH2 0x6D4 JUMPI PUSH2 0x6D3 PUSH2 0x477 JUMP JUMPDEST JUMPDEST PUSH2 0x6DE DUP3 SLOAD PUSH2 0x4D5 JUMP JUMPDEST PUSH2 0x6E9 DUP3 DUP3 DUP6 PUSH2 0x625 JUMP JUMPDEST PUSH1 0x0 PUSH1 0x20 SWAP1 POP PUSH1 0x1F DUP4 GT PUSH1 0x1 DUP2 EQ PUSH2 0x71C JUMPI PUSH1 0x0 DUP5 ISZERO PUSH2 0x70A JUMPI DUP3 DUP8 ADD MLOAD SWAP1 POP JUMPDEST PUSH2 0x714 DUP6 DUP3 PUSH2 0x696 JUMP JUMPDEST DUP7 SSTORE POP PUSH2 0x77C JUMP JUMPDEST PUSH1 0x1F NOT DUP5 AND PUSH2 0x72A DUP7 PUSH2 0x506 JUMP JUMPDEST PUSH1 0x0 JUMPDEST DUP3 DUP2 LT ISZERO PUSH2 0x752 JUMPI DUP5 DUP10 ADD MLOAD DUP3 SSTORE PUSH1 0x1 DUP3 ADD SWAP2 POP PUSH1 0x20 DUP6 ADD SWAP5 POP PUSH1 0x20 DUP2 ADD SWAP1 POP PUSH2 0x72D JUMP JUMPDEST DUP7 DUP4 LT ISZERO PUSH2 0x76F JUMPI DUP5 DUP10 ADD MLOAD PUSH2 0x76B PUSH1 0x1F DUP10 AND DUP3 PUSH2 0x678 JUMP JUMPDEST DUP4 SSTORE POP JUMPDEST PUSH1 0x1 PUSH1 0x2 DUP9 MUL ADD DUP9 SSTORE POP POP POP JUMPDEST POP POP POP POP POP POP JUMP INVALID LOG2 PUSH5 0x6970667358 0x22 SLT KECCAK256 REVERT DUP6 EXTCODECOPY RETURN SWAP11 0xAF 0xF6 SWAP14 EXTCODECOPY 0xAF 0xAC PUSH23 0xB161CA9BA3C4E80E9EB0CBA2AA9D8C339F2F271164736F PUSH13 0x634300080F0033000000000000 "
				},
				"gasEstimates": {
					"creation": {
						"codeDepositCost": "395600",
						"executionCost": "430",
						"totalCost": "396030"
					},
					"external": {
						"addPerson(string,uint256)": "infinite",
						"people(uint256)": "infinite",
						"retrieve()": "2415",
						"store(uint256)": "22520"
					}
				},
				"methodIdentifiers": {
					"addPerson(string,uint256)": "6f760f41",
					"people(uint256)": "9e7a13ad",
					"retrieve()": "2e64cec1",
					"store(uint256)": "6057361d"
				}
			},
			"storageLayout": {
				"storage": [
					{
						"astId": 3,
						"contract": "SimpleStorage-3.sol:SimpleStorage",
						"label": "favoriteNumber",
						"offset": 0,
						"slot": "0",
						"type": "t_uint256"
					},
					{
						"astId": 12,
						"contract": "SimpleStorage-3.sol:SimpleStorage",
						"label": "people",
						"offset": 0,
						"slot": "1",
						"type": "t_array(t_struct(People)8_storage)dyn_storage"
					}
				],
				"types": {
					"t_array(t_struct(People)8_storage)dyn_storage": {
						"base": "t_struct(People)8_storage",
						"encoding": "dynamic_array",
						"label": "struct SimpleStorage.People[]",
						"numberOfBytes": "32"
					},
					"t_string_storage": {
						"encoding": "bytes",
						"label": "string",
						"numberOfBytes": "32"
					},
					"t_struct(People)8_storage": {
						"encoding": "inplace",
						"label": "struct SimpleStorage.People",
						"members": [
							{
								"astId": 5,
								"contract": "SimpleStorage-3.sol:SimpleStorage",
								"label": "favoriteNumber",
								"offset": 0,
								"slot": "0",
								"type": "t_uint256"
							},
							{
								"astId": 7,
								"contract": "SimpleStorage-3.sol:SimpleStorage",
								"label": "name",
								"offset": 0,
								"slot": "1",
								"type": "t_string_storage"
							}
						],
						"numberOfBytes": "64"
					},
					"t_uint256": {
						"encoding": "inplace",
						"label": "uint256",
						"numberOfBytes": "32"
					}
				}
			},
			"userdoc": {
				"kind": "user",
				"methods": {},
				"version": 1
			}
		}
	}
}